{
  "_format": "hh-sol-artifact-1",
  "contractName": "TOOT",
  "sourceName": "contracts/TOOT.sol",
  "abi": [
    {
      "inputs": [
        {
          "internalType": "string",
          "name": "_name",
          "type": "string"
        },
        {
          "internalType": "string",
          "name": "_symbol",
          "type": "string"
        },
        {
          "internalType": "uint32",
          "name": "_startTime",
          "type": "uint32"
        },
        {
          "internalType": "string",
          "name": "_baseTokenURI",
          "type": "string"
        }
      ],
      "stateMutability": "nonpayable",
      "type": "constructor"
    },
    {
      "inputs": [],
      "name": "ApprovalCallerNotOwnerNorApproved",
      "type": "error"
    },
    {
      "inputs": [],
      "name": "ApprovalQueryForNonexistentToken",
      "type": "error"
    },
    {
      "inputs": [],
      "name": "ApprovalToCurrentOwner",
      "type": "error"
    },
    {
      "inputs": [],
      "name": "ApproveToCaller",
      "type": "error"
    },
    {
      "inputs": [],
      "name": "BalanceQueryForZeroAddress",
      "type": "error"
    },
    {
      "inputs": [],
      "name": "InvalidShortString",
      "type": "error"
    },
    {
      "inputs": [],
      "name": "MintToZeroAddress",
      "type": "error"
    },
    {
      "inputs": [],
      "name": "MintZeroQuantity",
      "type": "error"
    },
    {
      "inputs": [],
      "name": "OwnerIndexOutOfBounds",
      "type": "error"
    },
    {
      "inputs": [],
      "name": "OwnerQueryForNonexistentToken",
      "type": "error"
    },
    {
      "inputs": [
        {
          "internalType": "string",
          "name": "str",
          "type": "string"
        }
      ],
      "name": "StringTooLong",
      "type": "error"
    },
    {
      "inputs": [],
      "name": "TokenIndexOutOfBounds",
      "type": "error"
    },
    {
      "inputs": [],
      "name": "TransferCallerNotOwnerNorApproved",
      "type": "error"
    },
    {
      "inputs": [],
      "name": "TransferFromIncorrectOwner",
      "type": "error"
    },
    {
      "inputs": [],
      "name": "TransferToNonERC721ReceiverImplementer",
      "type": "error"
    },
    {
      "inputs": [],
      "name": "TransferToZeroAddress",
      "type": "error"
    },
    {
      "inputs": [],
      "name": "URIQueryForNonexistentToken",
      "type": "error"
    },
    {
      "anonymous": false,
      "inputs": [
        {
          "indexed": true,
          "internalType": "address",
          "name": "owner",
          "type": "address"
        },
        {
          "indexed": true,
          "internalType": "address",
          "name": "approved",
          "type": "address"
        },
        {
          "indexed": true,
          "internalType": "uint256",
          "name": "tokenId",
          "type": "uint256"
        }
      ],
      "name": "Approval",
      "type": "event"
    },
    {
      "anonymous": false,
      "inputs": [
        {
          "indexed": true,
          "internalType": "address",
          "name": "owner",
          "type": "address"
        },
        {
          "indexed": true,
          "internalType": "address",
          "name": "operator",
          "type": "address"
        },
        {
          "indexed": false,
          "internalType": "bool",
          "name": "approved",
          "type": "bool"
        }
      ],
      "name": "ApprovalForAll",
      "type": "event"
    },
    {
      "anonymous": false,
      "inputs": [],
      "name": "EIP712DomainChanged",
      "type": "event"
    },
    {
      "anonymous": false,
      "inputs": [
        {
          "indexed": true,
          "internalType": "address",
          "name": "previousOwner",
          "type": "address"
        },
        {
          "indexed": true,
          "internalType": "address",
          "name": "newOwner",
          "type": "address"
        }
      ],
      "name": "OwnershipTransferred",
      "type": "event"
    },
    {
      "anonymous": false,
      "inputs": [
        {
          "indexed": true,
          "internalType": "address",
          "name": "from",
          "type": "address"
        },
        {
          "indexed": true,
          "internalType": "address",
          "name": "to",
          "type": "address"
        },
        {
          "indexed": true,
          "internalType": "uint256",
          "name": "tokenId",
          "type": "uint256"
        }
      ],
      "name": "Transfer",
      "type": "event"
    },
    {
      "inputs": [
        {
          "internalType": "address",
          "name": "",
          "type": "address"
        }
      ],
      "name": "_mintedCounts",
      "outputs": [
        {
          "internalType": "uint256",
          "name": "",
          "type": "uint256"
        }
      ],
      "stateMutability": "view",
      "type": "function"
    },
    {
      "inputs": [
        {
          "internalType": "address",
          "name": "to",
          "type": "address"
        },
        {
          "internalType": "uint256",
          "name": "tokenId",
          "type": "uint256"
        }
      ],
      "name": "approve",
      "outputs": [],
      "stateMutability": "nonpayable",
      "type": "function"
    },
    {
      "inputs": [
        {
          "internalType": "address",
          "name": "owner",
          "type": "address"
        }
      ],
      "name": "balanceOf",
      "outputs": [
        {
          "internalType": "uint256",
          "name": "",
          "type": "uint256"
        }
      ],
      "stateMutability": "view",
      "type": "function"
    },
    {
      "inputs": [],
      "name": "contractURI",
      "outputs": [
        {
          "internalType": "string",
          "name": "",
          "type": "string"
        }
      ],
      "stateMutability": "view",
      "type": "function"
    },
    {
      "inputs": [],
      "name": "eip712Domain",
      "outputs": [
        {
          "internalType": "bytes1",
          "name": "fields",
          "type": "bytes1"
        },
        {
          "internalType": "string",
          "name": "name",
          "type": "string"
        },
        {
          "internalType": "string",
          "name": "version",
          "type": "string"
        },
        {
          "internalType": "uint256",
          "name": "chainId",
          "type": "uint256"
        },
        {
          "internalType": "address",
          "name": "verifyingContract",
          "type": "address"
        },
        {
          "internalType": "bytes32",
          "name": "salt",
          "type": "bytes32"
        },
        {
          "internalType": "uint256[]",
          "name": "extensions",
          "type": "uint256[]"
        }
      ],
      "stateMutability": "view",
      "type": "function"
    },
    {
      "inputs": [
        {
          "internalType": "uint256",
          "name": "tokenId",
          "type": "uint256"
        }
      ],
      "name": "getApproved",
      "outputs": [
        {
          "internalType": "address",
          "name": "",
          "type": "address"
        }
      ],
      "stateMutability": "view",
      "type": "function"
    },
    {
      "inputs": [
        {
          "internalType": "address",
          "name": "owner",
          "type": "address"
        },
        {
          "internalType": "address",
          "name": "operator",
          "type": "address"
        }
      ],
      "name": "isApprovedForAll",
      "outputs": [
        {
          "internalType": "bool",
          "name": "",
          "type": "bool"
        }
      ],
      "stateMutability": "view",
      "type": "function"
    },
    {
      "inputs": [],
      "name": "mint",
      "outputs": [],
      "stateMutability": "nonpayable",
      "type": "function"
    },
    {
      "inputs": [],
      "name": "name",
      "outputs": [
        {
          "internalType": "string",
          "name": "",
          "type": "string"
        }
      ],
      "stateMutability": "view",
      "type": "function"
    },
    {
      "inputs": [],
      "name": "owner",
      "outputs": [
        {
          "internalType": "address",
          "name": "",
          "type": "address"
        }
      ],
      "stateMutability": "view",
      "type": "function"
    },
    {
      "inputs": [
        {
          "internalType": "uint256",
          "name": "tokenId",
          "type": "uint256"
        }
      ],
      "name": "ownerOf",
      "outputs": [
        {
          "internalType": "address",
          "name": "",
          "type": "address"
        }
      ],
      "stateMutability": "view",
      "type": "function"
    },
    {
      "inputs": [],
      "name": "renounceOwnership",
      "outputs": [],
      "stateMutability": "nonpayable",
      "type": "function"
    },
    {
      "inputs": [
        {
          "internalType": "address",
          "name": "to",
          "type": "address"
        },
        {
          "internalType": "uint256",
          "name": "amount",
          "type": "uint256"
        }
      ],
      "name": "reserve",
      "outputs": [],
      "stateMutability": "nonpayable",
      "type": "function"
    },
    {
      "inputs": [
        {
          "internalType": "address",
          "name": "from",
          "type": "address"
        },
        {
          "internalType": "address",
          "name": "to",
          "type": "address"
        },
        {
          "internalType": "uint256",
          "name": "tokenId",
          "type": "uint256"
        }
      ],
      "name": "safeTransferFrom",
      "outputs": [],
      "stateMutability": "nonpayable",
      "type": "function"
    },
    {
      "inputs": [
        {
          "internalType": "address",
          "name": "from",
          "type": "address"
        },
        {
          "internalType": "address",
          "name": "to",
          "type": "address"
        },
        {
          "internalType": "uint256",
          "name": "tokenId",
          "type": "uint256"
        },
        {
          "internalType": "bytes",
          "name": "_data",
          "type": "bytes"
        }
      ],
      "name": "safeTransferFrom",
      "outputs": [],
      "stateMutability": "nonpayable",
      "type": "function"
    },
    {
      "inputs": [
        {
          "internalType": "address",
          "name": "operator",
          "type": "address"
        },
        {
          "internalType": "bool",
          "name": "approved",
          "type": "bool"
        }
      ],
      "name": "setApprovalForAll",
      "outputs": [],
      "stateMutability": "nonpayable",
      "type": "function"
    },
    {
      "inputs": [
        {
          "internalType": "string",
          "name": "baseURI",
          "type": "string"
        }
      ],
      "name": "setBaseURI",
      "outputs": [],
      "stateMutability": "nonpayable",
      "type": "function"
    },
    {
      "inputs": [
        {
          "internalType": "string",
          "name": "_newURI",
          "type": "string"
        }
      ],
      "name": "setNewContractURI",
      "outputs": [],
      "stateMutability": "nonpayable",
      "type": "function"
    },
    {
      "inputs": [],
      "name": "startTime",
      "outputs": [
        {
          "internalType": "uint32",
          "name": "",
          "type": "uint32"
        }
      ],
      "stateMutability": "view",
      "type": "function"
    },
    {
      "inputs": [
        {
          "internalType": "bytes4",
          "name": "interfaceId",
          "type": "bytes4"
        }
      ],
      "name": "supportsInterface",
      "outputs": [
        {
          "internalType": "bool",
          "name": "",
          "type": "bool"
        }
      ],
      "stateMutability": "view",
      "type": "function"
    },
    {
      "inputs": [],
      "name": "symbol",
      "outputs": [
        {
          "internalType": "string",
          "name": "",
          "type": "string"
        }
      ],
      "stateMutability": "view",
      "type": "function"
    },
    {
      "inputs": [
        {
          "internalType": "uint256",
          "name": "index",
          "type": "uint256"
        }
      ],
      "name": "tokenByIndex",
      "outputs": [
        {
          "internalType": "uint256",
          "name": "",
          "type": "uint256"
        }
      ],
      "stateMutability": "view",
      "type": "function"
    },
    {
      "inputs": [
        {
          "internalType": "address",
          "name": "owner",
          "type": "address"
        },
        {
          "internalType": "uint256",
          "name": "index",
          "type": "uint256"
        }
      ],
      "name": "tokenOfOwnerByIndex",
      "outputs": [
        {
          "internalType": "uint256",
          "name": "",
          "type": "uint256"
        }
      ],
      "stateMutability": "view",
      "type": "function"
    },
    {
      "inputs": [
        {
          "internalType": "uint256",
          "name": "tokenId",
          "type": "uint256"
        }
      ],
      "name": "tokenURI",
      "outputs": [
        {
          "internalType": "string",
          "name": "",
          "type": "string"
        }
      ],
      "stateMutability": "view",
      "type": "function"
    },
    {
      "inputs": [],
      "name": "totalSupply",
      "outputs": [
        {
          "internalType": "uint256",
          "name": "",
          "type": "uint256"
        }
      ],
      "stateMutability": "view",
      "type": "function"
    },
    {
      "inputs": [
        {
          "internalType": "address",
          "name": "from",
          "type": "address"
        },
        {
          "internalType": "address",
          "name": "to",
          "type": "address"
        },
        {
          "internalType": "uint256",
          "name": "tokenId",
          "type": "uint256"
        }
      ],
      "name": "transferFrom",
      "outputs": [],
      "stateMutability": "nonpayable",
      "type": "function"
    },
    {
      "inputs": [
        {
          "internalType": "address",
          "name": "newOwner",
          "type": "address"
        }
      ],
      "name": "transferOwnership",
      "outputs": [],
      "stateMutability": "nonpayable",
      "type": "function"
    },
    {
      "inputs": [
        {
          "components": [
            {
              "internalType": "address",
              "name": "redeemer",
              "type": "address"
            }
          ],
          "internalType": "struct TOOT.NFTVoucher",
          "name": "voucher",
          "type": "tuple"
        },
        {
          "internalType": "bytes",
          "name": "signature",
          "type": "bytes"
        }
      ],
      "name": "whiteListMint",
      "outputs": [],
      "stateMutability": "nonpayable",
      "type": "function"
    },
    {
      "inputs": [],
      "name": "withdraw",
      "outputs": [],
      "stateMutability": "nonpayable",
      "type": "function"
    }
  ],
  "bytecode": "0x6101606040526040518060600160405280603f81526020016200540f603f9139600c908051906020019062000036929190620003fc565b503480156200004457600080fd5b506040516200544e3803806200544e83398181016040528101906200006a91906200068a565b836040518060400160405280600181526020017f31000000000000000000000000000000000000000000000000000000000000008152508585620000c3620000b7620001f860201b60201c565b6200020060201b60201c565b8160029080519060200190620000db929190620003fc565b508060039080519060200190620000f4929190620003fc565b50505062000112600883620002c460201b6200185b1790919060201c565b610120818152505062000135600982620002c460201b6200185b1790919060201c565b6101408181525050818051906020012060e08181525050808051906020012061010081815250504660a08181525050620001746200032860201b60201c565b608081815250503073ffffffffffffffffffffffffffffffffffffffff1660c08173ffffffffffffffffffffffffffffffffffffffff1660601b81525050505081600a60006101000a81548163ffffffff021916908363ffffffff16021790555080600b9080519060200190620001ed929190620003fc565b5050505050620009c6565b600033905090565b60008060009054906101000a900473ffffffffffffffffffffffffffffffffffffffff169050816000806101000a81548173ffffffffffffffffffffffffffffffffffffffff021916908373ffffffffffffffffffffffffffffffffffffffff1602179055508173ffffffffffffffffffffffffffffffffffffffff168173ffffffffffffffffffffffffffffffffffffffff167f8be0079c531659141344cd1fd0a4f28419497f9722a3daafe3b4186f6b6457e060405160405180910390a35050565b6000602083511015620002ea57620002e2836200038560201b60201c565b905062000322565b826200030183620003f260201b620018a61760201c565b600001908051906020019062000319929190620003fc565b5060ff60001b90505b92915050565b60007f8b73c3c69bb8fe3d512ecc4cf759cc79239f7b179b0ffacaa9a75d522b39400f60e0516101005146306040516020016200036a959493929190620007d4565b60405160208183030381529060405280519060200120905090565b600080829050601f81511115620003d557826040517f305a27a9000000000000000000000000000000000000000000000000000000008152600401620003cc91906200088e565b60405180910390fd5b805181620003e390620008f1565b60001c1760001b915050919050565b6000819050919050565b8280546200040a9062000990565b90600052602060002090601f0160209004810192826200042e57600085556200047a565b82601f106200044957805160ff19168380011785556200047a565b828001600101855582156200047a579182015b82811115620004795782518255916020019190600101906200045c565b5b5090506200048991906200048d565b5090565b5b80821115620004a85760008160009055506001016200048e565b5090565b6000604051905090565b600080fd5b600080fd5b600080fd5b600080fd5b6000601f19601f8301169050919050565b7f4e487b7100000000000000000000000000000000000000000000000000000000600052604160045260246000fd5b6200051582620004ca565b810181811067ffffffffffffffff82111715620005375762000536620004db565b5b80604052505050565b60006200054c620004ac565b90506200055a82826200050a565b919050565b600067ffffffffffffffff8211156200057d576200057c620004db565b5b6200058882620004ca565b9050602081019050919050565b60005b83811015620005b557808201518184015260208101905062000598565b83811115620005c5576000848401525b50505050565b6000620005e2620005dc846200055f565b62000540565b905082815260208101848484011115620006015762000600620004c5565b5b6200060e84828562000595565b509392505050565b600082601f8301126200062e576200062d620004c0565b5b815162000640848260208601620005cb565b91505092915050565b600063ffffffff82169050919050565b620006648162000649565b81146200067057600080fd5b50565b600081519050620006848162000659565b92915050565b60008060008060808587031215620006a757620006a6620004b6565b5b600085015167ffffffffffffffff811115620006c857620006c7620004bb565b5b620006d68782880162000616565b945050602085015167ffffffffffffffff811115620006fa57620006f9620004bb565b5b620007088782880162000616565b93505060406200071b8782880162000673565b925050606085015167ffffffffffffffff8111156200073f576200073e620004bb565b5b6200074d8782880162000616565b91505092959194509250565b6000819050919050565b6200076e8162000759565b82525050565b6000819050919050565b620007898162000774565b82525050565b600073ffffffffffffffffffffffffffffffffffffffff82169050919050565b6000620007bc826200078f565b9050919050565b620007ce81620007af565b82525050565b600060a082019050620007eb600083018862000763565b620007fa602083018762000763565b62000809604083018662000763565b6200081860608301856200077e565b620008276080830184620007c3565b9695505050505050565b600081519050919050565b600082825260208201905092915050565b60006200085a8262000831565b6200086681856200083c565b93506200087881856020860162000595565b6200088381620004ca565b840191505092915050565b60006020820190508181036000830152620008aa81846200084d565b905092915050565b600081519050919050565b6000819050602082019050919050565b6000620008db825162000759565b80915050919050565b600082821b905092915050565b6000620008fe82620008b2565b826200090a84620008bd565b90506200091781620008cd565b925060208210156200095a57620009557fffffffffffffffffffffffffffffffffffffffffffffffffffffffffffffffff83602003600802620008e4565b831692505b5050919050565b7f4e487b7100000000000000000000000000000000000000000000000000000000600052602260045260246000fd5b60006002820490506001821680620009a957607f821691505b60208210811415620009c057620009bf62000961565b5b50919050565b60805160a05160c05160601c60e0516101005161012051610140516149eb62000a24600039600061123e0152600061120a015260006133440152600061332301526000612ffa015260006130500152600061307901526149eb6000f3fe608060405234801561001057600080fd5b50600436106101cf5760003560e01c80636352211e1161010457806395d89b41116100a2578063cc47a40b11610071578063cc47a40b1461050c578063e8a3d48514610528578063e985e9c514610546578063f2fde38b14610576576101cf565b806395d89b4114610486578063a22cb465146104a4578063b88d4fde146104c0578063c87b56dd146104dc576101cf565b806378e97925116100de57806378e979251461040a57806384b0196e146104285780638da5cb5b1461044c578063905a7da61461046a576101cf565b80636352211e146103a057806370a08231146103d0578063715018a614610400576101cf565b806323b872dd1161017157806342842e0e1161014b57806342842e0e1461031c5780634f6ccce71461033857806355f804b3146103685780635e04c7c414610384576101cf565b806323b872dd146102c65780632f745c59146102e25780633ccfd60b14610312576101cf565b8063095ea7b3116101ad578063095ea7b3146102525780631249c58b1461026e57806318160ddd146102785780632148928814610296576101cf565b806301ffc9a7146101d457806306fdde0314610204578063081812fc14610222575b600080fd5b6101ee60048036038101906101e991906135c9565b610592565b6040516101fb9190613611565b60405180910390f35b61020c6106dc565b60405161021991906136c5565b60405180910390f35b61023c6004803603810190610237919061371d565b61076e565b604051610249919061378b565b60405180910390f35b61026c600480360381019061026791906137d2565b6107ea565b005b6102766108f5565b005b610280610ab4565b60405161028d9190613821565b60405180910390f35b6102b060048036038101906102ab919061383c565b610b0c565b6040516102bd9190613821565b60405180910390f35b6102e060048036038101906102db9190613869565b610b24565b005b6102fc60048036038101906102f791906137d2565b610b34565b6040516103099190613821565b60405180910390f35b61031a610d3c565b005b61033660048036038101906103319190613869565b610d57565b005b610352600480360381019061034d919061371d565b610d77565b60405161035f9190613821565b60405180910390f35b610382600480360381019061037d91906139f1565b610eea565b005b61039e60048036038101906103999190613abe565b610f0c565b005b6103ba60048036038101906103b5919061371d565b6110e7565b6040516103c7919061378b565b60405180910390f35b6103ea60048036038101906103e5919061383c565b6110fd565b6040516103f79190613821565b60405180910390f35b6104086111cd565b005b6104126111e1565b60405161041f9190613b3d565b60405180910390f35b6104306111f7565b6040516104439796959493929190613c6a565b60405180910390f35b6104546112f9565b604051610461919061378b565b60405180910390f35b610484600480360381019061047f91906139f1565b611322565b005b61048e611344565b60405161049b91906136c5565b60405180910390f35b6104be60048036038101906104b99190613d1a565b6113d6565b005b6104da60048036038101906104d59190613dfb565b61154e565b005b6104f660048036038101906104f1919061371d565b6115a1565b60405161050391906136c5565b60405180910390f35b610526600480360381019061052191906137d2565b611640565b005b6105306116b1565b60405161053d91906136c5565b60405180910390f35b610560600480360381019061055b9190613e7e565b611743565b60405161056d9190613611565b60405180910390f35b610590600480360381019061058b919061383c565b6117d7565b005b60007f80ac58cd000000000000000000000000000000000000000000000000000000007bffffffffffffffffffffffffffffffffffffffffffffffffffffffff1916827bffffffffffffffffffffffffffffffffffffffffffffffffffffffff1916148061065d57507f5b5e139f000000000000000000000000000000000000000000000000000000007bffffffffffffffffffffffffffffffffffffffffffffffffffffffff1916827bffffffffffffffffffffffffffffffffffffffffffffffffffffffff1916145b806106c557507f780e9d63000000000000000000000000000000000000000000000000000000007bffffffffffffffffffffffffffffffffffffffffffffffffffffffff1916827bffffffffffffffffffffffffffffffffffffffffffffffffffffffff1916145b806106d557506106d4826118b0565b5b9050919050565b6060600280546106eb90613eed565b80601f016020809104026020016040519081016040528092919081815260200182805461071790613eed565b80156107645780601f1061073957610100808354040283529160200191610764565b820191906000526020600020905b81548152906001019060200180831161074757829003601f168201915b5050505050905090565b60006107798261191a565b6107af576040517fcf4700e400000000000000000000000000000000000000000000000000000000815260040160405180910390fd5b6006600083815260200190815260200160002060009054906101000a900473ffffffffffffffffffffffffffffffffffffffff169050919050565b60006107f5826110e7565b90508073ffffffffffffffffffffffffffffffffffffffff168373ffffffffffffffffffffffffffffffffffffffff16141561085d576040517f943f7b8c00000000000000000000000000000000000000000000000000000000815260040160405180910390fd5b8073ffffffffffffffffffffffffffffffffffffffff1661087c611983565b73ffffffffffffffffffffffffffffffffffffffff16141580156108ae57506108ac816108a7611983565b611743565b155b156108e5576040517fcfb3b94200000000000000000000000000000000000000000000000000000000815260040160405180910390fd5b6108f083838361198b565b505050565b6000600190506002600d6000610909611983565b73ffffffffffffffffffffffffffffffffffffffff1673ffffffffffffffffffffffffffffffffffffffff1681526020019081526020016000205410610984576040517f08c379a000000000000000000000000000000000000000000000000000000000815260040161097b90613f6b565b60405180910390fd5b600a60009054906101000a900463ffffffff1663ffffffff164210156109df576040517f08c379a00000000000000000000000000000000000000000000000000000000081526004016109d690613fd7565b60405180910390fd5b611b5f61ffff168160ff166109f2610ab4565b6109fc9190614026565b1115610a3d576040517f08c379a0000000000000000000000000000000000000000000000000000000008152600401610a34906140c8565b60405180910390fd5b8060ff16600d6000610a4d611983565b73ffffffffffffffffffffffffffffffffffffffff1673ffffffffffffffffffffffffffffffffffffffff1681526020019081526020016000206000828254610a969190614026565b92505081905550610ab1610aa8611983565b8260ff16611a3d565b50565b6000600160109054906101000a90046fffffffffffffffffffffffffffffffff16600160009054906101000a90046fffffffffffffffffffffffffffffffff16036fffffffffffffffffffffffffffffffff16905090565b600d6020528060005260406000206000915090505481565b610b2f838383611a5b565b505050565b6000610b3f836110fd565b8210610b77576040517f0ddac30e00000000000000000000000000000000000000000000000000000000815260040160405180910390fd5b6000600160009054906101000a90046fffffffffffffffffffffffffffffffff166fffffffffffffffffffffffffffffffff16905060008060005b83811015610d30576000600460008381526020019081526020016000206040518060600160405290816000820160009054906101000a900473ffffffffffffffffffffffffffffffffffffffff1673ffffffffffffffffffffffffffffffffffffffff1673ffffffffffffffffffffffffffffffffffffffff1681526020016000820160149054906101000a900467ffffffffffffffff1667ffffffffffffffff1667ffffffffffffffff16815260200160008201601c9054906101000a900460ff1615151515815250509050806040015115610c8f5750610d23565b600073ffffffffffffffffffffffffffffffffffffffff16816000015173ffffffffffffffffffffffffffffffffffffffff1614610ccf57806000015192505b8773ffffffffffffffffffffffffffffffffffffffff168373ffffffffffffffffffffffffffffffffffffffff161415610d215786841415610d18578195505050505050610d36565b83806001019450505b505b8080600101915050610bb2565b50600080fd5b92915050565b610d44611f7a565b610d55610d4f6112f9565b47611ff8565b565b610d728383836040518060200160405280600081525061154e565b505050565b600080600160009054906101000a90046fffffffffffffffffffffffffffffffff166fffffffffffffffffffffffffffffffff1690506000805b82811015610eb2576000600460008381526020019081526020016000206040518060600160405290816000820160009054906101000a900473ffffffffffffffffffffffffffffffffffffffff1673ffffffffffffffffffffffffffffffffffffffff1673ffffffffffffffffffffffffffffffffffffffff1681526020016000820160149054906101000a900467ffffffffffffffff1667ffffffffffffffff1667ffffffffffffffff16815260200160008201601c9054906101000a900460ff16151515158152505090508060400151610ea45785831415610e9b5781945050505050610ee5565b82806001019350505b508080600101915050610db1565b506040517fa723001c00000000000000000000000000000000000000000000000000000000815260040160405180910390fd5b919050565b610ef2611f7a565b80600b9080519060200190610f08929190613477565b5050565b600060019050610f1d8484846120ec565b6002600d6000610f2b611983565b73ffffffffffffffffffffffffffffffffffffffff1673ffffffffffffffffffffffffffffffffffffffff1681526020019081526020016000205410610fa6576040517f08c379a0000000000000000000000000000000000000000000000000000000008152600401610f9d90613f6b565b60405180910390fd5b62015180600a60009054906101000a900463ffffffff16610fc791906140e8565b63ffffffff1642101561100f576040517f08c379a000000000000000000000000000000000000000000000000000000000815260040161100690614168565b60405180910390fd5b611b5f61ffff168160ff16611022610ab4565b61102c9190614026565b111561106d576040517f08c379a0000000000000000000000000000000000000000000000000000000008152600401611064906141d4565b60405180910390fd5b611081611078611983565b8260ff16611a3d565b8060ff16600d6000611091611983565b73ffffffffffffffffffffffffffffffffffffffff1673ffffffffffffffffffffffffffffffffffffffff16815260200190815260200160002060008282546110da9190614026565b9250508190555050505050565b60006110f282612297565b600001519050919050565b60008073ffffffffffffffffffffffffffffffffffffffff168273ffffffffffffffffffffffffffffffffffffffff161415611165576040517f8f4eb60400000000000000000000000000000000000000000000000000000000815260040160405180910390fd5b600560008373ffffffffffffffffffffffffffffffffffffffff1673ffffffffffffffffffffffffffffffffffffffff16815260200190815260200160002060000160009054906101000a900467ffffffffffffffff1667ffffffffffffffff169050919050565b6111d5611f7a565b6111df6000612541565b565b600a60009054906101000a900463ffffffff1681565b60006060806000806000606061123760087f000000000000000000000000000000000000000000000000000000000000000061260590919063ffffffff16565b61126b60097f000000000000000000000000000000000000000000000000000000000000000061260590919063ffffffff16565b46306000801b600067ffffffffffffffff81111561128c5761128b6138c6565b5b6040519080825280602002602001820160405280156112ba5781602001602082028036833780820191505090505b507f0f00000000000000000000000000000000000000000000000000000000000000959493929190965096509650965096509650965090919293949596565b60008060009054906101000a900473ffffffffffffffffffffffffffffffffffffffff16905090565b61132a611f7a565b80600c9080519060200190611340929190613477565b5050565b60606003805461135390613eed565b80601f016020809104026020016040519081016040528092919081815260200182805461137f90613eed565b80156113cc5780601f106113a1576101008083540402835291602001916113cc565b820191906000526020600020905b8154815290600101906020018083116113af57829003601f168201915b5050505050905090565b6113de611983565b73ffffffffffffffffffffffffffffffffffffffff168273ffffffffffffffffffffffffffffffffffffffff161415611443576040517fb06307db00000000000000000000000000000000000000000000000000000000815260040160405180910390fd5b8060076000611450611983565b73ffffffffffffffffffffffffffffffffffffffff1673ffffffffffffffffffffffffffffffffffffffff16815260200190815260200160002060008473ffffffffffffffffffffffffffffffffffffffff1673ffffffffffffffffffffffffffffffffffffffff16815260200190815260200160002060006101000a81548160ff0219169083151502179055508173ffffffffffffffffffffffffffffffffffffffff166114fd611983565b73ffffffffffffffffffffffffffffffffffffffff167f17307eab39ab6107e8899845ad3d59bd9653f200f220920489ca2b5937696c31836040516115429190613611565b60405180910390a35050565b611559848484611a5b565b611565848484846126b5565b61159b576040517fd1a57ed600000000000000000000000000000000000000000000000000000000815260040160405180910390fd5b50505050565b60606115ac8261191a565b6115e2576040517fa14c4b5000000000000000000000000000000000000000000000000000000000815260040160405180910390fd5b60006115ec612843565b905060008151141561160d5760405180602001604052806000815250611638565b80611617846128d5565b604051602001611628929190614230565b6040516020818303038152906040525b915050919050565b611648611f7a565b611b5f61ffff1681611658610ab4565b6116629190614026565b11156116a3576040517f08c379a000000000000000000000000000000000000000000000000000000000815260040161169a906140c8565b60405180910390fd5b6116ad8282611a3d565b5050565b6060600c80546116c090613eed565b80601f01602080910402602001604051908101604052809291908181526020018280546116ec90613eed565b80156117395780601f1061170e57610100808354040283529160200191611739565b820191906000526020600020905b81548152906001019060200180831161171c57829003601f168201915b5050505050905090565b6000600760008473ffffffffffffffffffffffffffffffffffffffff1673ffffffffffffffffffffffffffffffffffffffff16815260200190815260200160002060008373ffffffffffffffffffffffffffffffffffffffff1673ffffffffffffffffffffffffffffffffffffffff16815260200190815260200160002060009054906101000a900460ff16905092915050565b6117df611f7a565b600073ffffffffffffffffffffffffffffffffffffffff168173ffffffffffffffffffffffffffffffffffffffff16141561184f576040517f08c379a0000000000000000000000000000000000000000000000000000000008152600401611846906142c6565b60405180910390fd5b61185881612541565b50565b600060208351101561187757611870836129ad565b90506118a0565b82611881836118a6565b6000019080519060200190611897929190613477565b5060ff60001b90505b92915050565b6000819050919050565b60007f01ffc9a7000000000000000000000000000000000000000000000000000000007bffffffffffffffffffffffffffffffffffffffffffffffffffffffff1916827bffffffffffffffffffffffffffffffffffffffffffffffffffffffff1916149050919050565b6000600160009054906101000a90046fffffffffffffffffffffffffffffffff166fffffffffffffffffffffffffffffffff168210801561197c575060046000838152602001908152602001600020600001601c9054906101000a900460ff16155b9050919050565b600033905090565b826006600084815260200190815260200160002060006101000a81548173ffffffffffffffffffffffffffffffffffffffff021916908373ffffffffffffffffffffffffffffffffffffffff160217905550818373ffffffffffffffffffffffffffffffffffffffff168273ffffffffffffffffffffffffffffffffffffffff167f8c5be1e5ebec7d5bd14f71427d1e84f3dd0314c0f7b2291e5b200ac8c7c3b92560405160405180910390a4505050565b611a57828260405180602001604052806000815250612a15565b5050565b6000611a6682612297565b90506000816000015173ffffffffffffffffffffffffffffffffffffffff16611a8d611983565b73ffffffffffffffffffffffffffffffffffffffff161480611ac05750611abf8260000151611aba611983565b611743565b5b80611b055750611ace611983565b73ffffffffffffffffffffffffffffffffffffffff16611aed8461076e565b73ffffffffffffffffffffffffffffffffffffffff16145b905080611b3e576040517f59c896be00000000000000000000000000000000000000000000000000000000815260040160405180910390fd5b8473ffffffffffffffffffffffffffffffffffffffff16826000015173ffffffffffffffffffffffffffffffffffffffff1614611ba7576040517fa114810000000000000000000000000000000000000000000000000000000000815260040160405180910390fd5b600073ffffffffffffffffffffffffffffffffffffffff168473ffffffffffffffffffffffffffffffffffffffff161415611c0e576040517fea553b3400000000000000000000000000000000000000000000000000000000815260040160405180910390fd5b611c1b8585856001612a27565b611c2b600084846000015161198b565b6001600560008773ffffffffffffffffffffffffffffffffffffffff1673ffffffffffffffffffffffffffffffffffffffff16815260200190815260200160002060000160008282829054906101000a900467ffffffffffffffff160392506101000a81548167ffffffffffffffff021916908367ffffffffffffffff1602179055506001600560008673ffffffffffffffffffffffffffffffffffffffff1673ffffffffffffffffffffffffffffffffffffffff16815260200190815260200160002060000160008282829054906101000a900467ffffffffffffffff160192506101000a81548167ffffffffffffffff021916908367ffffffffffffffff160217905550836004600085815260200190815260200160002060000160006101000a81548173ffffffffffffffffffffffffffffffffffffffff021916908373ffffffffffffffffffffffffffffffffffffffff160217905550426004600085815260200190815260200160002060000160146101000a81548167ffffffffffffffff021916908367ffffffffffffffff1602179055506000600184019050600073ffffffffffffffffffffffffffffffffffffffff166004600083815260200190815260200160002060000160009054906101000a900473ffffffffffffffffffffffffffffffffffffffff1673ffffffffffffffffffffffffffffffffffffffff161415611f0a57600160009054906101000a90046fffffffffffffffffffffffffffffffff166fffffffffffffffffffffffffffffffff16811015611f095782600001516004600083815260200190815260200160002060000160006101000a81548173ffffffffffffffffffffffffffffffffffffffff021916908373ffffffffffffffffffffffffffffffffffffffff16021790555082602001516004600083815260200190815260200160002060000160146101000a81548167ffffffffffffffff021916908367ffffffffffffffff1602179055505b5b50828473ffffffffffffffffffffffffffffffffffffffff168673ffffffffffffffffffffffffffffffffffffffff167fddf252ad1be2c89b69c2b068fc378daa952ba7f163c4a11628f55a4df523b3ef60405160405180910390a4611f738585856001612a2d565b5050505050565b611f82611983565b73ffffffffffffffffffffffffffffffffffffffff16611fa06112f9565b73ffffffffffffffffffffffffffffffffffffffff1614611ff6576040517f08c379a0000000000000000000000000000000000000000000000000000000008152600401611fed90614332565b60405180910390fd5b565b8047101561203b576040517f08c379a00000000000000000000000000000000000000000000000000000000081526004016120329061439e565b60405180910390fd5b60008273ffffffffffffffffffffffffffffffffffffffff1682604051612061906143ef565b60006040518083038185875af1925050503d806000811461209e576040519150601f19603f3d011682016040523d82523d6000602084013e6120a3565b606091505b50509050806120e7576040517f08c379a00000000000000000000000000000000000000000000000000000000081526004016120de90614476565b60405180910390fd5b505050565b6120f4611983565b73ffffffffffffffffffffffffffffffffffffffff1683600001602081019061211d919061383c565b73ffffffffffffffffffffffffffffffffffffffff1614612173576040517f08c379a000000000000000000000000000000000000000000000000000000000815260040161216a906144e2565b60405180910390fd5b60006121cd7fdabea70844bf24d9249fbcd43ff305a229af24da603ae5c43f957f44dcbd0bed6121a1611983565b6040516020016121b2929190614502565b60405160208183030381529060405280519060200120612a33565b905061221d8184848080601f016020809104026020016040519081016040528093929190818152602001838380828437600081840152601f19601f82011690508083019250505050505050612a4d565b73ffffffffffffffffffffffffffffffffffffffff1661223b6112f9565b73ffffffffffffffffffffffffffffffffffffffff1614612291576040517f08c379a00000000000000000000000000000000000000000000000000000000081526004016122889061459d565b60405180910390fd5b50505050565b61229f6134fd565b6000829050600160009054906101000a90046fffffffffffffffffffffffffffffffff166fffffffffffffffffffffffffffffffff1681101561250a576000600460008381526020019081526020016000206040518060600160405290816000820160009054906101000a900473ffffffffffffffffffffffffffffffffffffffff1673ffffffffffffffffffffffffffffffffffffffff1673ffffffffffffffffffffffffffffffffffffffff1681526020016000820160149054906101000a900467ffffffffffffffff1667ffffffffffffffff1667ffffffffffffffff16815260200160008201601c9054906101000a900460ff1615151515815250509050806040015161250857600073ffffffffffffffffffffffffffffffffffffffff16816000015173ffffffffffffffffffffffffffffffffffffffff16146123ec57809250505061253c565b5b60011561250757818060019003925050600460008381526020019081526020016000206040518060600160405290816000820160009054906101000a900473ffffffffffffffffffffffffffffffffffffffff1673ffffffffffffffffffffffffffffffffffffffff1673ffffffffffffffffffffffffffffffffffffffff1681526020016000820160149054906101000a900467ffffffffffffffff1667ffffffffffffffff1667ffffffffffffffff16815260200160008201601c9054906101000a900460ff1615151515815250509050600073ffffffffffffffffffffffffffffffffffffffff16816000015173ffffffffffffffffffffffffffffffffffffffff161461250257809250505061253c565b6123ed565b5b505b6040517fdf2d9b4200000000000000000000000000000000000000000000000000000000815260040160405180910390fd5b919050565b60008060009054906101000a900473ffffffffffffffffffffffffffffffffffffffff169050816000806101000a81548173ffffffffffffffffffffffffffffffffffffffff021916908373ffffffffffffffffffffffffffffffffffffffff1602179055508173ffffffffffffffffffffffffffffffffffffffff168173ffffffffffffffffffffffffffffffffffffffff167f8be0079c531659141344cd1fd0a4f28419497f9722a3daafe3b4186f6b6457e060405160405180910390a35050565b606060ff60001b83146126225761261b83612a74565b90506126af565b81805461262e90613eed565b80601f016020809104026020016040519081016040528092919081815260200182805461265a90613eed565b80156126a75780601f1061267c576101008083540402835291602001916126a7565b820191906000526020600020905b81548152906001019060200180831161268a57829003601f168201915b505050505090505b92915050565b60006126d68473ffffffffffffffffffffffffffffffffffffffff16612ae8565b15612836578373ffffffffffffffffffffffffffffffffffffffff1663150b7a026126ff611983565b8786866040518563ffffffff1660e01b81526004016127219493929190614612565b602060405180830381600087803b15801561273b57600080fd5b505af192505050801561276c57506040513d601f19601f820116820180604052508101906127699190614673565b60015b6127e6573d806000811461279c576040519150601f19603f3d011682016040523d82523d6000602084013e6127a1565b606091505b506000815114156127de576040517fd1a57ed600000000000000000000000000000000000000000000000000000000815260040160405180910390fd5b805181602001fd5b63150b7a0260e01b7bffffffffffffffffffffffffffffffffffffffffffffffffffffffff1916817bffffffffffffffffffffffffffffffffffffffffffffffffffffffff19161491505061283b565b600190505b949350505050565b6060600b805461285290613eed565b80601f016020809104026020016040519081016040528092919081815260200182805461287e90613eed565b80156128cb5780601f106128a0576101008083540402835291602001916128cb565b820191906000526020600020905b8154815290600101906020018083116128ae57829003601f168201915b5050505050905090565b6060600060016128e484612b0b565b01905060008167ffffffffffffffff811115612903576129026138c6565b5b6040519080825280601f01601f1916602001820160405280156129355781602001600182028036833780820191505090505b509050600082602001820190505b6001156129a2578080600190039150507f3031323334353637383961626364656600000000000000000000000000000000600a86061a8153600a858161298c5761298b6146a0565b5b049450600085141561299d576129a2565b612943565b819350505050919050565b600080829050601f815111156129fa57826040517f305a27a90000000000000000000000000000000000000000000000000000000081526004016129f191906136c5565b60405180910390fd5b805181612a0690614701565b60001c1760001b915050919050565b612a228383836001612c5e565b505050565b50505050565b50505050565b6000612a46612a40612ff6565b836130ad565b9050919050565b6000806000612a5c85856130ee565b91509150612a6981613140565b819250505092915050565b60606000612a81836132ae565b90506000602067ffffffffffffffff811115612aa057612a9f6138c6565b5b6040519080825280601f01601f191660200182016040528015612ad25781602001600182028036833780820191505090505b5090508181528360208201528092505050919050565b6000808273ffffffffffffffffffffffffffffffffffffffff163b119050919050565b600080600090507a184f03e93ff9f4daa797ed6e38ed64bf6a1f0100000000000000008310612b69577a184f03e93ff9f4daa797ed6e38ed64bf6a1f0100000000000000008381612b5f57612b5e6146a0565b5b0492506040810190505b6d04ee2d6d415b85acef81000000008310612ba6576d04ee2d6d415b85acef81000000008381612b9c57612b9b6146a0565b5b0492506020810190505b662386f26fc100008310612bd557662386f26fc100008381612bcb57612bca6146a0565b5b0492506010810190505b6305f5e1008310612bfe576305f5e1008381612bf457612bf36146a0565b5b0492506008810190505b6127108310612c23576127108381612c1957612c186146a0565b5b0492506004810190505b60648310612c465760648381612c3c57612c3b6146a0565b5b0492506002810190505b600a8310612c55576001810190505b80915050919050565b6000600160009054906101000a90046fffffffffffffffffffffffffffffffff166fffffffffffffffffffffffffffffffff169050600073ffffffffffffffffffffffffffffffffffffffff168573ffffffffffffffffffffffffffffffffffffffff161415612cfa576040517f2e07630000000000000000000000000000000000000000000000000000000000815260040160405180910390fd5b6000841415612d35576040517fb562e8dd00000000000000000000000000000000000000000000000000000000815260040160405180910390fd5b612d426000868387612a27565b83600560008773ffffffffffffffffffffffffffffffffffffffff1673ffffffffffffffffffffffffffffffffffffffff16815260200190815260200160002060000160008282829054906101000a900467ffffffffffffffff160192506101000a81548167ffffffffffffffff021916908367ffffffffffffffff16021790555083600560008773ffffffffffffffffffffffffffffffffffffffff1673ffffffffffffffffffffffffffffffffffffffff16815260200190815260200160002060000160088282829054906101000a900467ffffffffffffffff160192506101000a81548167ffffffffffffffff021916908367ffffffffffffffff160217905550846004600083815260200190815260200160002060000160006101000a81548173ffffffffffffffffffffffffffffffffffffffff021916908373ffffffffffffffffffffffffffffffffffffffff160217905550426004600083815260200190815260200160002060000160146101000a81548167ffffffffffffffff021916908367ffffffffffffffff160217905550600081905060005b85811015612fa757818773ffffffffffffffffffffffffffffffffffffffff16600073ffffffffffffffffffffffffffffffffffffffff167fddf252ad1be2c89b69c2b068fc378daa952ba7f163c4a11628f55a4df523b3ef60405160405180910390a4838015612f5b5750612f5960008884886126b5565b155b15612f92576040517fd1a57ed600000000000000000000000000000000000000000000000000000000815260040160405180910390fd5b81806001019250508080600101915050612ee0565b5080600160006101000a8154816fffffffffffffffffffffffffffffffff02191690836fffffffffffffffffffffffffffffffff16021790555050612fef6000868387612a2d565b5050505050565b60007f000000000000000000000000000000000000000000000000000000000000000073ffffffffffffffffffffffffffffffffffffffff163073ffffffffffffffffffffffffffffffffffffffff1614801561307257507f000000000000000000000000000000000000000000000000000000000000000046145b1561309f577f000000000000000000000000000000000000000000000000000000000000000090506130aa565b6130a76132fe565b90505b90565b60006040517f190100000000000000000000000000000000000000000000000000000000000081528360028201528260228201526042812091505092915050565b6000806041835114156131305760008060006020860151925060408601519150606086015160001a905061312487828585613394565b94509450505050613139565b60006002915091505b9250929050565b6000600481111561315457613153614768565b5b81600481111561316757613166614768565b5b1415613172576132ab565b6001600481111561318657613185614768565b5b81600481111561319957613198614768565b5b14156131da576040517f08c379a00000000000000000000000000000000000000000000000000000000081526004016131d1906147e3565b60405180910390fd5b600260048111156131ee576131ed614768565b5b81600481111561320157613200614768565b5b1415613242576040517f08c379a00000000000000000000000000000000000000000000000000000000081526004016132399061484f565b60405180910390fd5b6003600481111561325657613255614768565b5b81600481111561326957613268614768565b5b14156132aa576040517f08c379a00000000000000000000000000000000000000000000000000000000081526004016132a1906148e1565b60405180910390fd5b5b50565b60008060ff8360001c169050601f8111156132f5576040517fb3512b0c00000000000000000000000000000000000000000000000000000000815260040160405180910390fd5b80915050919050565b60007f8b73c3c69bb8fe3d512ecc4cf759cc79239f7b179b0ffacaa9a75d522b39400f7f00000000000000000000000000000000000000000000000000000000000000007f00000000000000000000000000000000000000000000000000000000000000004630604051602001613379959493929190614901565b60405160208183030381529060405280519060200120905090565b6000807f7fffffffffffffffffffffffffffffff5d576e7357a4501ddfe92f46681b20a08360001c11156133cf57600060039150915061346e565b6000600187878787604051600081526020016040526040516133f49493929190614970565b6020604051602081039080840390855afa158015613416573d6000803e3d6000fd5b505050602060405103519050600073ffffffffffffffffffffffffffffffffffffffff168173ffffffffffffffffffffffffffffffffffffffff1614156134655760006001925092505061346e565b80600092509250505b94509492505050565b82805461348390613eed565b90600052602060002090601f0160209004810192826134a557600085556134ec565b82601f106134be57805160ff19168380011785556134ec565b828001600101855582156134ec579182015b828111156134eb5782518255916020019190600101906134d0565b5b5090506134f99190613540565b5090565b6040518060600160405280600073ffffffffffffffffffffffffffffffffffffffff168152602001600067ffffffffffffffff1681526020016000151581525090565b5b80821115613559576000816000905550600101613541565b5090565b6000604051905090565b600080fd5b600080fd5b60007fffffffff0000000000000000000000000000000000000000000000000000000082169050919050565b6135a681613571565b81146135b157600080fd5b50565b6000813590506135c38161359d565b92915050565b6000602082840312156135df576135de613567565b5b60006135ed848285016135b4565b91505092915050565b60008115159050919050565b61360b816135f6565b82525050565b60006020820190506136266000830184613602565b92915050565b600081519050919050565b600082825260208201905092915050565b60005b8381101561366657808201518184015260208101905061364b565b83811115613675576000848401525b50505050565b6000601f19601f8301169050919050565b60006136978261362c565b6136a18185613637565b93506136b1818560208601613648565b6136ba8161367b565b840191505092915050565b600060208201905081810360008301526136df818461368c565b905092915050565b6000819050919050565b6136fa816136e7565b811461370557600080fd5b50565b600081359050613717816136f1565b92915050565b60006020828403121561373357613732613567565b5b600061374184828501613708565b91505092915050565b600073ffffffffffffffffffffffffffffffffffffffff82169050919050565b60006137758261374a565b9050919050565b6137858161376a565b82525050565b60006020820190506137a0600083018461377c565b92915050565b6137af8161376a565b81146137ba57600080fd5b50565b6000813590506137cc816137a6565b92915050565b600080604083850312156137e9576137e8613567565b5b60006137f7858286016137bd565b925050602061380885828601613708565b9150509250929050565b61381b816136e7565b82525050565b60006020820190506138366000830184613812565b92915050565b60006020828403121561385257613851613567565b5b6000613860848285016137bd565b91505092915050565b60008060006060848603121561388257613881613567565b5b6000613890868287016137bd565b93505060206138a1868287016137bd565b92505060406138b286828701613708565b9150509250925092565b600080fd5b600080fd5b7f4e487b7100000000000000000000000000000000000000000000000000000000600052604160045260246000fd5b6138fe8261367b565b810181811067ffffffffffffffff8211171561391d5761391c6138c6565b5b80604052505050565b600061393061355d565b905061393c82826138f5565b919050565b600067ffffffffffffffff82111561395c5761395b6138c6565b5b6139658261367b565b9050602081019050919050565b82818337600083830152505050565b600061399461398f84613941565b613926565b9050828152602081018484840111156139b0576139af6138c1565b5b6139bb848285613972565b509392505050565b600082601f8301126139d8576139d76138bc565b5b81356139e8848260208601613981565b91505092915050565b600060208284031215613a0757613a06613567565b5b600082013567ffffffffffffffff811115613a2557613a2461356c565b5b613a31848285016139c3565b91505092915050565b600080fd5b600060208284031215613a5557613a54613a3a565b5b81905092915050565b600080fd5b600080fd5b60008083601f840112613a7e57613a7d6138bc565b5b8235905067ffffffffffffffff811115613a9b57613a9a613a5e565b5b602083019150836001820283011115613ab757613ab6613a63565b5b9250929050565b600080600060408486031215613ad757613ad6613567565b5b6000613ae586828701613a3f565b935050602084013567ffffffffffffffff811115613b0657613b0561356c565b5b613b1286828701613a68565b92509250509250925092565b600063ffffffff82169050919050565b613b3781613b1e565b82525050565b6000602082019050613b526000830184613b2e565b92915050565b60007fff0000000000000000000000000000000000000000000000000000000000000082169050919050565b613b8d81613b58565b82525050565b6000819050919050565b613ba681613b93565b82525050565b600081519050919050565b600082825260208201905092915050565b6000819050602082019050919050565b613be1816136e7565b82525050565b6000613bf38383613bd8565b60208301905092915050565b6000602082019050919050565b6000613c1782613bac565b613c218185613bb7565b9350613c2c83613bc8565b8060005b83811015613c5d578151613c448882613be7565b9750613c4f83613bff565b925050600181019050613c30565b5085935050505092915050565b600060e082019050613c7f600083018a613b84565b8181036020830152613c91818961368c565b90508181036040830152613ca5818861368c565b9050613cb46060830187613812565b613cc1608083018661377c565b613cce60a0830185613b9d565b81810360c0830152613ce08184613c0c565b905098975050505050505050565b613cf7816135f6565b8114613d0257600080fd5b50565b600081359050613d1481613cee565b92915050565b60008060408385031215613d3157613d30613567565b5b6000613d3f858286016137bd565b9250506020613d5085828601613d05565b9150509250929050565b600067ffffffffffffffff821115613d7557613d746138c6565b5b613d7e8261367b565b9050602081019050919050565b6000613d9e613d9984613d5a565b613926565b905082815260208101848484011115613dba57613db96138c1565b5b613dc5848285613972565b509392505050565b600082601f830112613de257613de16138bc565b5b8135613df2848260208601613d8b565b91505092915050565b60008060008060808587031215613e1557613e14613567565b5b6000613e23878288016137bd565b9450506020613e34878288016137bd565b9350506040613e4587828801613708565b925050606085013567ffffffffffffffff811115613e6657613e6561356c565b5b613e7287828801613dcd565b91505092959194509250565b60008060408385031215613e9557613e94613567565b5b6000613ea3858286016137bd565b9250506020613eb4858286016137bd565b9150509250929050565b7f4e487b7100000000000000000000000000000000000000000000000000000000600052602260045260246000fd5b60006002820490506001821680613f0557607f821691505b60208210811415613f1957613f18613ebe565b5b50919050565b7f4d696e7465640000000000000000000000000000000000000000000000000000600082015250565b6000613f55600683613637565b9150613f6082613f1f565b602082019050919050565b60006020820190508181036000830152613f8481613f48565b9050919050565b7f53616c65206e6f74207374617274656400000000000000000000000000000000600082015250565b6000613fc1601083613637565b9150613fcc82613f8b565b602082019050919050565b60006020820190508181036000830152613ff081613fb4565b9050919050565b7f4e487b7100000000000000000000000000000000000000000000000000000000600052601160045260246000fd5b6000614031826136e7565b915061403c836136e7565b9250827fffffffffffffffffffffffffffffffffffffffffffffffffffffffffffffffff0382111561407157614070613ff7565b5b828201905092915050565b7f45786365656420746f74616c20737570706c7900000000000000000000000000600082015250565b60006140b2601383613637565b91506140bd8261407c565b602082019050919050565b600060208201905081810360008301526140e1816140a5565b9050919050565b60006140f382613b1e565b91506140fe83613b1e565b92508282101561411157614110613ff7565b5b828203905092915050565b7f57686974654c6973742053616c65206e6f742073746172746564000000000000600082015250565b6000614152601a83613637565b915061415d8261411c565b602082019050919050565b6000602082019050818103600083015261418181614145565b9050919050565b7f457863656564207374616765206d617820737570706c79000000000000000000600082015250565b60006141be601783613637565b91506141c982614188565b602082019050919050565b600060208201905081810360008301526141ed816141b1565b9050919050565b600081905092915050565b600061420a8261362c565b61421481856141f4565b9350614224818560208601613648565b80840191505092915050565b600061423c82856141ff565b915061424882846141ff565b91508190509392505050565b7f4f776e61626c653a206e6577206f776e657220697320746865207a65726f206160008201527f6464726573730000000000000000000000000000000000000000000000000000602082015250565b60006142b0602683613637565b91506142bb82614254565b604082019050919050565b600060208201905081810360008301526142df816142a3565b9050919050565b7f4f776e61626c653a2063616c6c6572206973206e6f7420746865206f776e6572600082015250565b600061431c602083613637565b9150614327826142e6565b602082019050919050565b6000602082019050818103600083015261434b8161430f565b9050919050565b7f416464726573733a20696e73756666696369656e742062616c616e6365000000600082015250565b6000614388601d83613637565b915061439382614352565b602082019050919050565b600060208201905081810360008301526143b78161437b565b9050919050565b600081905092915050565b50565b60006143d96000836143be565b91506143e4826143c9565b600082019050919050565b60006143fa826143cc565b9150819050919050565b7f416464726573733a20756e61626c6520746f2073656e642076616c75652c207260008201527f6563697069656e74206d61792068617665207265766572746564000000000000602082015250565b6000614460603a83613637565b915061446b82614404565b604082019050919050565b6000602082019050818103600083015261448f81614453565b9050919050565b7f566f7563686572206e6f7420666f72207468652072656465656d657200000000600082015250565b60006144cc601c83613637565b91506144d782614496565b602082019050919050565b600060208201905081810360008301526144fb816144bf565b9050919050565b60006040820190506145176000830185613b9d565b614524602083018461377c565b9392505050565b7f5369676e617475726520696e76616c6964206f7220756e617574686f72697a6560008201527f6400000000000000000000000000000000000000000000000000000000000000602082015250565b6000614587602183613637565b91506145928261452b565b604082019050919050565b600060208201905081810360008301526145b68161457a565b9050919050565b600081519050919050565b600082825260208201905092915050565b60006145e4826145bd565b6145ee81856145c8565b93506145fe818560208601613648565b6146078161367b565b840191505092915050565b6000608082019050614627600083018761377c565b614634602083018661377c565b6146416040830185613812565b818103606083015261465381846145d9565b905095945050505050565b60008151905061466d8161359d565b92915050565b60006020828403121561468957614688613567565b5b60006146978482850161465e565b91505092915050565b7f4e487b7100000000000000000000000000000000000000000000000000000000600052601260045260246000fd5b6000819050602082019050919050565b60006146eb8251613b93565b80915050919050565b600082821b905092915050565b600061470c826145bd565b82614716846146cf565b9050614721816146df565b925060208210156147615761475c7fffffffffffffffffffffffffffffffffffffffffffffffffffffffffffffffff836020036008026146f4565b831692505b5050919050565b7f4e487b7100000000000000000000000000000000000000000000000000000000600052602160045260246000fd5b7f45434453413a20696e76616c6964207369676e61747572650000000000000000600082015250565b60006147cd601883613637565b91506147d882614797565b602082019050919050565b600060208201905081810360008301526147fc816147c0565b9050919050565b7f45434453413a20696e76616c6964207369676e6174757265206c656e67746800600082015250565b6000614839601f83613637565b915061484482614803565b602082019050919050565b600060208201905081810360008301526148688161482c565b9050919050565b7f45434453413a20696e76616c6964207369676e6174757265202773272076616c60008201527f7565000000000000000000000000000000000000000000000000000000000000602082015250565b60006148cb602283613637565b91506148d68261486f565b604082019050919050565b600060208201905081810360008301526148fa816148be565b9050919050565b600060a0820190506149166000830188613b9d565b6149236020830187613b9d565b6149306040830186613b9d565b61493d6060830185613812565b61494a608083018461377c565b9695505050505050565b600060ff82169050919050565b61496a81614954565b82525050565b60006080820190506149856000830187613b9d565b6149926020830186614961565b61499f6040830185613b9d565b6149ac6060830184613b9d565b9594505050505056fea26469706673582212200e07363dda65d42a8bbb7b03d288cdfffc526f96036d8c3c789cec785e2b06bb64736f6c6343000808003368747470733a2f2f617277656176652e6e65742f5646333451574961494e4b6354654e587574444b2d4e426b4e4271566a356f3571656c6336455133476151",
  "linkReferences": {},
  "deployedLinkReferences": {}
}