{
  "_format": "hh-sol-artifact-1",
  "contractName": "TOOT",
  "sourceName": "contracts/TOOT.sol",
  "abi": [
    {
      "inputs": [
        {
          "internalType": "string",
          "name": "_name",
          "type": "string"
        },
        {
          "internalType": "string",
          "name": "_symbol",
          "type": "string"
        },
        {
          "internalType": "uint32",
          "name": "_startTime",
          "type": "uint32"
        },
        {
          "internalType": "string",
          "name": "_baseTokenURI",
          "type": "string"
        }
      ],
      "stateMutability": "nonpayable",
      "type": "constructor"
    },
    {
      "inputs": [],
      "name": "ApprovalCallerNotOwnerNorApproved",
      "type": "error"
    },
    {
      "inputs": [],
      "name": "ApprovalQueryForNonexistentToken",
      "type": "error"
    },
    {
      "inputs": [],
      "name": "ApprovalToCurrentOwner",
      "type": "error"
    },
    {
      "inputs": [],
      "name": "ApproveToCaller",
      "type": "error"
    },
    {
      "inputs": [],
      "name": "BalanceQueryForZeroAddress",
      "type": "error"
    },
    {
      "inputs": [],
      "name": "InvalidShortString",
      "type": "error"
    },
    {
      "inputs": [],
      "name": "MintToZeroAddress",
      "type": "error"
    },
    {
      "inputs": [],
      "name": "MintZeroQuantity",
      "type": "error"
    },
    {
      "inputs": [],
      "name": "OwnerIndexOutOfBounds",
      "type": "error"
    },
    {
      "inputs": [],
      "name": "OwnerQueryForNonexistentToken",
      "type": "error"
    },
    {
      "inputs": [
        {
          "internalType": "string",
          "name": "str",
          "type": "string"
        }
      ],
      "name": "StringTooLong",
      "type": "error"
    },
    {
      "inputs": [],
      "name": "TokenIndexOutOfBounds",
      "type": "error"
    },
    {
      "inputs": [],
      "name": "TransferCallerNotOwnerNorApproved",
      "type": "error"
    },
    {
      "inputs": [],
      "name": "TransferFromIncorrectOwner",
      "type": "error"
    },
    {
      "inputs": [],
      "name": "TransferToNonERC721ReceiverImplementer",
      "type": "error"
    },
    {
      "inputs": [],
      "name": "TransferToZeroAddress",
      "type": "error"
    },
    {
      "inputs": [],
      "name": "URIQueryForNonexistentToken",
      "type": "error"
    },
    {
      "anonymous": false,
      "inputs": [
        {
          "indexed": true,
          "internalType": "address",
          "name": "owner",
          "type": "address"
        },
        {
          "indexed": true,
          "internalType": "address",
          "name": "approved",
          "type": "address"
        },
        {
          "indexed": true,
          "internalType": "uint256",
          "name": "tokenId",
          "type": "uint256"
        }
      ],
      "name": "Approval",
      "type": "event"
    },
    {
      "anonymous": false,
      "inputs": [
        {
          "indexed": true,
          "internalType": "address",
          "name": "owner",
          "type": "address"
        },
        {
          "indexed": true,
          "internalType": "address",
          "name": "operator",
          "type": "address"
        },
        {
          "indexed": false,
          "internalType": "bool",
          "name": "approved",
          "type": "bool"
        }
      ],
      "name": "ApprovalForAll",
      "type": "event"
    },
    {
      "anonymous": false,
      "inputs": [],
      "name": "EIP712DomainChanged",
      "type": "event"
    },
    {
      "anonymous": false,
      "inputs": [
        {
          "indexed": true,
          "internalType": "address",
          "name": "previousOwner",
          "type": "address"
        },
        {
          "indexed": true,
          "internalType": "address",
          "name": "newOwner",
          "type": "address"
        }
      ],
      "name": "OwnershipTransferred",
      "type": "event"
    },
    {
      "anonymous": false,
      "inputs": [
        {
          "indexed": true,
          "internalType": "address",
          "name": "from",
          "type": "address"
        },
        {
          "indexed": true,
          "internalType": "address",
          "name": "to",
          "type": "address"
        },
        {
          "indexed": true,
          "internalType": "uint256",
          "name": "tokenId",
          "type": "uint256"
        }
      ],
      "name": "Transfer",
      "type": "event"
    },
    {
      "inputs": [
        {
          "internalType": "address",
          "name": "",
          "type": "address"
        }
      ],
      "name": "_mintedCounts",
      "outputs": [
        {
          "internalType": "uint256",
          "name": "",
          "type": "uint256"
        }
      ],
      "stateMutability": "view",
      "type": "function"
    },
    {
      "inputs": [
        {
          "internalType": "address",
          "name": "to",
          "type": "address"
        },
        {
          "internalType": "uint256",
          "name": "tokenId",
          "type": "uint256"
        }
      ],
      "name": "approve",
      "outputs": [],
      "stateMutability": "nonpayable",
      "type": "function"
    },
    {
      "inputs": [
        {
          "internalType": "address",
          "name": "owner",
          "type": "address"
        }
      ],
      "name": "balanceOf",
      "outputs": [
        {
          "internalType": "uint256",
          "name": "",
          "type": "uint256"
        }
      ],
      "stateMutability": "view",
      "type": "function"
    },
    {
      "inputs": [],
      "name": "contractURI",
      "outputs": [
        {
          "internalType": "string",
          "name": "",
          "type": "string"
        }
      ],
      "stateMutability": "view",
      "type": "function"
    },
    {
      "inputs": [],
      "name": "eip712Domain",
      "outputs": [
        {
          "internalType": "bytes1",
          "name": "fields",
          "type": "bytes1"
        },
        {
          "internalType": "string",
          "name": "name",
          "type": "string"
        },
        {
          "internalType": "string",
          "name": "version",
          "type": "string"
        },
        {
          "internalType": "uint256",
          "name": "chainId",
          "type": "uint256"
        },
        {
          "internalType": "address",
          "name": "verifyingContract",
          "type": "address"
        },
        {
          "internalType": "bytes32",
          "name": "salt",
          "type": "bytes32"
        },
        {
          "internalType": "uint256[]",
          "name": "extensions",
          "type": "uint256[]"
        }
      ],
      "stateMutability": "view",
      "type": "function"
    },
    {
      "inputs": [
        {
          "internalType": "uint256",
          "name": "tokenId",
          "type": "uint256"
        }
      ],
      "name": "getApproved",
      "outputs": [
        {
          "internalType": "address",
          "name": "",
          "type": "address"
        }
      ],
      "stateMutability": "view",
      "type": "function"
    },
    {
      "inputs": [
        {
          "internalType": "address",
          "name": "owner",
          "type": "address"
        },
        {
          "internalType": "address",
          "name": "operator",
          "type": "address"
        }
      ],
      "name": "isApprovedForAll",
      "outputs": [
        {
          "internalType": "bool",
          "name": "",
          "type": "bool"
        }
      ],
      "stateMutability": "view",
      "type": "function"
    },
    {
      "inputs": [],
      "name": "mint",
      "outputs": [],
      "stateMutability": "nonpayable",
      "type": "function"
    },
    {
      "inputs": [],
      "name": "name",
      "outputs": [
        {
          "internalType": "string",
          "name": "",
          "type": "string"
        }
      ],
      "stateMutability": "view",
      "type": "function"
    },
    {
      "inputs": [],
      "name": "owner",
      "outputs": [
        {
          "internalType": "address",
          "name": "",
          "type": "address"
        }
      ],
      "stateMutability": "view",
      "type": "function"
    },
    {
      "inputs": [
        {
          "internalType": "uint256",
          "name": "tokenId",
          "type": "uint256"
        }
      ],
      "name": "ownerOf",
      "outputs": [
        {
          "internalType": "address",
          "name": "",
          "type": "address"
        }
      ],
      "stateMutability": "view",
      "type": "function"
    },
    {
      "inputs": [],
      "name": "renounceOwnership",
      "outputs": [],
      "stateMutability": "nonpayable",
      "type": "function"
    },
    {
      "inputs": [
        {
          "internalType": "address",
          "name": "to",
          "type": "address"
        },
        {
          "internalType": "uint256",
          "name": "amount",
          "type": "uint256"
        }
      ],
      "name": "reserve",
      "outputs": [],
      "stateMutability": "nonpayable",
      "type": "function"
    },
    {
      "inputs": [
        {
          "internalType": "address",
          "name": "from",
          "type": "address"
        },
        {
          "internalType": "address",
          "name": "to",
          "type": "address"
        },
        {
          "internalType": "uint256",
          "name": "tokenId",
          "type": "uint256"
        }
      ],
      "name": "safeTransferFrom",
      "outputs": [],
      "stateMutability": "nonpayable",
      "type": "function"
    },
    {
      "inputs": [
        {
          "internalType": "address",
          "name": "from",
          "type": "address"
        },
        {
          "internalType": "address",
          "name": "to",
          "type": "address"
        },
        {
          "internalType": "uint256",
          "name": "tokenId",
          "type": "uint256"
        },
        {
          "internalType": "bytes",
          "name": "_data",
          "type": "bytes"
        }
      ],
      "name": "safeTransferFrom",
      "outputs": [],
      "stateMutability": "nonpayable",
      "type": "function"
    },
    {
      "inputs": [
        {
          "internalType": "address",
          "name": "operator",
          "type": "address"
        },
        {
          "internalType": "bool",
          "name": "approved",
          "type": "bool"
        }
      ],
      "name": "setApprovalForAll",
      "outputs": [],
      "stateMutability": "nonpayable",
      "type": "function"
    },
    {
      "inputs": [
        {
          "internalType": "string",
          "name": "baseURI",
          "type": "string"
        }
      ],
      "name": "setBaseURI",
      "outputs": [],
      "stateMutability": "nonpayable",
      "type": "function"
    },
    {
      "inputs": [
        {
          "internalType": "string",
          "name": "_newURI",
          "type": "string"
        }
      ],
      "name": "setNewContractURI",
      "outputs": [],
      "stateMutability": "nonpayable",
      "type": "function"
    },
    {
      "inputs": [],
      "name": "startTime",
      "outputs": [
        {
          "internalType": "uint32",
          "name": "",
          "type": "uint32"
        }
      ],
      "stateMutability": "view",
      "type": "function"
    },
    {
      "inputs": [
        {
          "internalType": "bytes4",
          "name": "interfaceId",
          "type": "bytes4"
        }
      ],
      "name": "supportsInterface",
      "outputs": [
        {
          "internalType": "bool",
          "name": "",
          "type": "bool"
        }
      ],
      "stateMutability": "view",
      "type": "function"
    },
    {
      "inputs": [],
      "name": "symbol",
      "outputs": [
        {
          "internalType": "string",
          "name": "",
          "type": "string"
        }
      ],
      "stateMutability": "view",
      "type": "function"
    },
    {
      "inputs": [
        {
          "internalType": "uint256",
          "name": "index",
          "type": "uint256"
        }
      ],
      "name": "tokenByIndex",
      "outputs": [
        {
          "internalType": "uint256",
          "name": "",
          "type": "uint256"
        }
      ],
      "stateMutability": "view",
      "type": "function"
    },
    {
      "inputs": [
        {
          "internalType": "address",
          "name": "owner",
          "type": "address"
        },
        {
          "internalType": "uint256",
          "name": "index",
          "type": "uint256"
        }
      ],
      "name": "tokenOfOwnerByIndex",
      "outputs": [
        {
          "internalType": "uint256",
          "name": "",
          "type": "uint256"
        }
      ],
      "stateMutability": "view",
      "type": "function"
    },
    {
      "inputs": [
        {
          "internalType": "uint256",
          "name": "tokenId",
          "type": "uint256"
        }
      ],
      "name": "tokenURI",
      "outputs": [
        {
          "internalType": "string",
          "name": "",
          "type": "string"
        }
      ],
      "stateMutability": "view",
      "type": "function"
    },
    {
      "inputs": [],
      "name": "totalSupply",
      "outputs": [
        {
          "internalType": "uint256",
          "name": "",
          "type": "uint256"
        }
      ],
      "stateMutability": "view",
      "type": "function"
    },
    {
      "inputs": [
        {
          "internalType": "address",
          "name": "from",
          "type": "address"
        },
        {
          "internalType": "address",
          "name": "to",
          "type": "address"
        },
        {
          "internalType": "uint256",
          "name": "tokenId",
          "type": "uint256"
        }
      ],
      "name": "transferFrom",
      "outputs": [],
      "stateMutability": "nonpayable",
      "type": "function"
    },
    {
      "inputs": [
        {
          "internalType": "address",
          "name": "newOwner",
          "type": "address"
        }
      ],
      "name": "transferOwnership",
      "outputs": [],
      "stateMutability": "nonpayable",
      "type": "function"
    },
    {
      "inputs": [
        {
          "components": [
            {
              "internalType": "address",
              "name": "redeemer",
              "type": "address"
            }
          ],
          "internalType": "struct TOOT.NFTVoucher",
          "name": "voucher",
          "type": "tuple"
        },
        {
          "internalType": "bytes",
          "name": "signature",
          "type": "bytes"
        }
      ],
      "name": "whiteListMint",
      "outputs": [],
      "stateMutability": "nonpayable",
      "type": "function"
    },
    {
      "inputs": [],
      "name": "withdraw",
      "outputs": [],
      "stateMutability": "nonpayable",
      "type": "function"
    }
  ],
  "bytecode": "0x6101606040523480156200001257600080fd5b506040516200548a3803806200548a833981810160405281019062000038919062000658565b836040518060400160405280600181526020017f310000000000000000000000000000000000000000000000000000000000000081525085856200009162000085620001c660201b60201c565b620001ce60201b60201c565b8160029080519060200190620000a9929190620003ca565b508060039080519060200190620000c2929190620003ca565b505050620000e06008836200029260201b6200189c1790919060201c565b6101208181525050620001036009826200029260201b6200189c1790919060201c565b6101408181525050818051906020012060e08181525050808051906020012061010081815250504660a0818152505062000142620002f660201b60201c565b608081815250503073ffffffffffffffffffffffffffffffffffffffff1660c08173ffffffffffffffffffffffffffffffffffffffff1660601b81525050505081600a60006101000a81548163ffffffff021916908363ffffffff16021790555080600b9080519060200190620001bb929190620003ca565b505050505062000994565b600033905090565b60008060009054906101000a900473ffffffffffffffffffffffffffffffffffffffff169050816000806101000a81548173ffffffffffffffffffffffffffffffffffffffff021916908373ffffffffffffffffffffffffffffffffffffffff1602179055508173ffffffffffffffffffffffffffffffffffffffff168173ffffffffffffffffffffffffffffffffffffffff167f8be0079c531659141344cd1fd0a4f28419497f9722a3daafe3b4186f6b6457e060405160405180910390a35050565b6000602083511015620002b857620002b0836200035360201b60201c565b9050620002f0565b82620002cf83620003c060201b620018e71760201c565b6000019080519060200190620002e7929190620003ca565b5060ff60001b90505b92915050565b60007f8b73c3c69bb8fe3d512ecc4cf759cc79239f7b179b0ffacaa9a75d522b39400f60e05161010051463060405160200162000338959493929190620007a2565b60405160208183030381529060405280519060200120905090565b600080829050601f81511115620003a357826040517f305a27a90000000000000000000000000000000000000000000000000000000081526004016200039a91906200085c565b60405180910390fd5b805181620003b190620008bf565b60001c1760001b915050919050565b6000819050919050565b828054620003d8906200095e565b90600052602060002090601f016020900481019282620003fc576000855562000448565b82601f106200041757805160ff191683800117855562000448565b8280016001018555821562000448579182015b82811115620004475782518255916020019190600101906200042a565b5b5090506200045791906200045b565b5090565b5b80821115620004765760008160009055506001016200045c565b5090565b6000604051905090565b600080fd5b600080fd5b600080fd5b600080fd5b6000601f19601f8301169050919050565b7f4e487b7100000000000000000000000000000000000000000000000000000000600052604160045260246000fd5b620004e38262000498565b810181811067ffffffffffffffff82111715620005055762000504620004a9565b5b80604052505050565b60006200051a6200047a565b9050620005288282620004d8565b919050565b600067ffffffffffffffff8211156200054b576200054a620004a9565b5b620005568262000498565b9050602081019050919050565b60005b838110156200058357808201518184015260208101905062000566565b8381111562000593576000848401525b50505050565b6000620005b0620005aa846200052d565b6200050e565b905082815260208101848484011115620005cf57620005ce62000493565b5b620005dc84828562000563565b509392505050565b600082601f830112620005fc57620005fb6200048e565b5b81516200060e84826020860162000599565b91505092915050565b600063ffffffff82169050919050565b620006328162000617565b81146200063e57600080fd5b50565b600081519050620006528162000627565b92915050565b6000806000806080858703121562000675576200067462000484565b5b600085015167ffffffffffffffff81111562000696576200069562000489565b5b620006a487828801620005e4565b945050602085015167ffffffffffffffff811115620006c857620006c762000489565b5b620006d687828801620005e4565b9350506040620006e98782880162000641565b925050606085015167ffffffffffffffff8111156200070d576200070c62000489565b5b6200071b87828801620005e4565b91505092959194509250565b6000819050919050565b6200073c8162000727565b82525050565b6000819050919050565b620007578162000742565b82525050565b600073ffffffffffffffffffffffffffffffffffffffff82169050919050565b60006200078a826200075d565b9050919050565b6200079c816200077d565b82525050565b600060a082019050620007b9600083018862000731565b620007c8602083018762000731565b620007d7604083018662000731565b620007e660608301856200074c565b620007f5608083018462000791565b9695505050505050565b600081519050919050565b600082825260208201905092915050565b60006200082882620007ff565b6200083481856200080a565b93506200084681856020860162000563565b620008518162000498565b840191505092915050565b600060208201905081810360008301526200087881846200081b565b905092915050565b600081519050919050565b6000819050602082019050919050565b6000620008a9825162000727565b80915050919050565b600082821b905092915050565b6000620008cc8262000880565b82620008d8846200088b565b9050620008e5816200089b565b925060208210156200092857620009237fffffffffffffffffffffffffffffffffffffffffffffffffffffffffffffffff83602003600802620008b2565b831692505b5050919050565b7f4e487b7100000000000000000000000000000000000000000000000000000000600052602260045260246000fd5b600060028204905060018216806200097757607f821691505b602082108114156200098e576200098d6200092f565b5b50919050565b60805160a05160c05160601c60e051610100516101205161014051614a98620009f2600039600061127f0152600061124b01526000613385015260006133640152600061303b01526000613091015260006130ba0152614a986000f3fe608060405234801561001057600080fd5b50600436106101cf5760003560e01c80636352211e1161010457806395d89b41116100a2578063cc47a40b11610071578063cc47a40b1461050c578063e8a3d48514610528578063e985e9c514610546578063f2fde38b14610576576101cf565b806395d89b4114610486578063a22cb465146104a4578063b88d4fde146104c0578063c87b56dd146104dc576101cf565b806378e97925116100de57806378e979251461040a57806384b0196e146104285780638da5cb5b1461044c578063905a7da61461046a576101cf565b80636352211e146103a057806370a08231146103d0578063715018a614610400576101cf565b806323b872dd1161017157806342842e0e1161014b57806342842e0e1461031c5780634f6ccce71461033857806355f804b3146103685780635e04c7c414610384576101cf565b806323b872dd146102c65780632f745c59146102e25780633ccfd60b14610312576101cf565b8063095ea7b3116101ad578063095ea7b3146102525780631249c58b1461026e57806318160ddd146102785780632148928814610296576101cf565b806301ffc9a7146101d457806306fdde0314610204578063081812fc14610222575b600080fd5b6101ee60048036038101906101e9919061360a565b610592565b6040516101fb9190613652565b60405180910390f35b61020c6106dc565b6040516102199190613706565b60405180910390f35b61023c6004803603810190610237919061375e565b61076e565b60405161024991906137cc565b60405180910390f35b61026c60048036038101906102679190613813565b6107ea565b005b6102766108f5565b005b610280610aa7565b60405161028d9190613862565b60405180910390f35b6102b060048036038101906102ab919061387d565b610aff565b6040516102bd9190613862565b60405180910390f35b6102e060048036038101906102db91906138aa565b610b17565b005b6102fc60048036038101906102f79190613813565b610b27565b6040516103099190613862565b60405180910390f35b61031a610d2f565b005b610336600480360381019061033191906138aa565b610d4a565b005b610352600480360381019061034d919061375e565b610d6a565b60405161035f9190613862565b60405180910390f35b610382600480360381019061037d9190613a32565b610edd565b005b61039e60048036038101906103999190613aff565b610eff565b005b6103ba60048036038101906103b5919061375e565b611128565b6040516103c791906137cc565b60405180910390f35b6103ea60048036038101906103e5919061387d565b61113e565b6040516103f79190613862565b60405180910390f35b61040861120e565b005b610412611222565b60405161041f9190613b7e565b60405180910390f35b610430611238565b6040516104439796959493929190613cab565b60405180910390f35b61045461133a565b60405161046191906137cc565b60405180910390f35b610484600480360381019061047f9190613a32565b611363565b005b61048e611385565b60405161049b9190613706565b60405180910390f35b6104be60048036038101906104b99190613d5b565b611417565b005b6104da60048036038101906104d59190613e3c565b61158f565b005b6104f660048036038101906104f1919061375e565b6115e2565b6040516105039190613706565b60405180910390f35b61052660048036038101906105219190613813565b611681565b005b6105306116f2565b60405161053d9190613706565b60405180910390f35b610560600480360381019061055b9190613ebf565b611784565b60405161056d9190613652565b60405180910390f35b610590600480360381019061058b919061387d565b611818565b005b60007f80ac58cd000000000000000000000000000000000000000000000000000000007bffffffffffffffffffffffffffffffffffffffffffffffffffffffff1916827bffffffffffffffffffffffffffffffffffffffffffffffffffffffff1916148061065d57507f5b5e139f000000000000000000000000000000000000000000000000000000007bffffffffffffffffffffffffffffffffffffffffffffffffffffffff1916827bffffffffffffffffffffffffffffffffffffffffffffffffffffffff1916145b806106c557507f780e9d63000000000000000000000000000000000000000000000000000000007bffffffffffffffffffffffffffffffffffffffffffffffffffffffff1916827bffffffffffffffffffffffffffffffffffffffffffffffffffffffff1916145b806106d557506106d4826118f1565b5b9050919050565b6060600280546106eb90613f2e565b80601f016020809104026020016040519081016040528092919081815260200182805461071790613f2e565b80156107645780601f1061073957610100808354040283529160200191610764565b820191906000526020600020905b81548152906001019060200180831161074757829003601f168201915b5050505050905090565b60006107798261195b565b6107af576040517fcf4700e400000000000000000000000000000000000000000000000000000000815260040160405180910390fd5b6006600083815260200190815260200160002060009054906101000a900473ffffffffffffffffffffffffffffffffffffffff169050919050565b60006107f582611128565b90508073ffffffffffffffffffffffffffffffffffffffff168373ffffffffffffffffffffffffffffffffffffffff16141561085d576040517f943f7b8c00000000000000000000000000000000000000000000000000000000815260040160405180910390fd5b8073ffffffffffffffffffffffffffffffffffffffff1661087c6119c4565b73ffffffffffffffffffffffffffffffffffffffff16141580156108ae57506108ac816108a76119c4565b611784565b155b156108e5576040517fcfb3b94200000000000000000000000000000000000000000000000000000000815260040160405180910390fd5b6108f08383836119cc565b505050565b6002600d60006109036119c4565b73ffffffffffffffffffffffffffffffffffffffff1673ffffffffffffffffffffffffffffffffffffffff168152602001908152602001600020541061097e576040517f08c379a000000000000000000000000000000000000000000000000000000000815260040161097590613fac565b60405180910390fd5b600a60009054906101000a900463ffffffff1663ffffffff164210156109d9576040517f08c379a00000000000000000000000000000000000000000000000000000000081526004016109d090614018565b60405180910390fd5b611b5f61ffff1660016109ea610aa7565b6109f49190614067565b1115610a35576040517f08c379a0000000000000000000000000000000000000000000000000000000008152600401610a2c90614109565b60405180910390fd5b6001600d6000610a436119c4565b73ffffffffffffffffffffffffffffffffffffffff1673ffffffffffffffffffffffffffffffffffffffff1681526020019081526020016000206000828254610a8c9190614067565b92505081905550610aa5610a9e6119c4565b6001611a7e565b565b6000600160109054906101000a90046fffffffffffffffffffffffffffffffff16600160009054906101000a90046fffffffffffffffffffffffffffffffff16036fffffffffffffffffffffffffffffffff16905090565b600d6020528060005260406000206000915090505481565b610b22838383611a9c565b505050565b6000610b328361113e565b8210610b6a576040517f0ddac30e00000000000000000000000000000000000000000000000000000000815260040160405180910390fd5b6000600160009054906101000a90046fffffffffffffffffffffffffffffffff166fffffffffffffffffffffffffffffffff16905060008060005b83811015610d23576000600460008381526020019081526020016000206040518060600160405290816000820160009054906101000a900473ffffffffffffffffffffffffffffffffffffffff1673ffffffffffffffffffffffffffffffffffffffff1673ffffffffffffffffffffffffffffffffffffffff1681526020016000820160149054906101000a900467ffffffffffffffff1667ffffffffffffffff1667ffffffffffffffff16815260200160008201601c9054906101000a900460ff1615151515815250509050806040015115610c825750610d16565b600073ffffffffffffffffffffffffffffffffffffffff16816000015173ffffffffffffffffffffffffffffffffffffffff1614610cc257806000015192505b8773ffffffffffffffffffffffffffffffffffffffff168373ffffffffffffffffffffffffffffffffffffffff161415610d145786841415610d0b578195505050505050610d29565b83806001019450505b505b8080600101915050610ba5565b50600080fd5b92915050565b610d37611fbb565b610d48610d4261133a565b47612039565b565b610d658383836040518060200160405280600081525061158f565b505050565b600080600160009054906101000a90046fffffffffffffffffffffffffffffffff166fffffffffffffffffffffffffffffffff1690506000805b82811015610ea5576000600460008381526020019081526020016000206040518060600160405290816000820160009054906101000a900473ffffffffffffffffffffffffffffffffffffffff1673ffffffffffffffffffffffffffffffffffffffff1673ffffffffffffffffffffffffffffffffffffffff1681526020016000820160149054906101000a900467ffffffffffffffff1667ffffffffffffffff1667ffffffffffffffff16815260200160008201601c9054906101000a900460ff16151515158152505090508060400151610e975785831415610e8e5781945050505050610ed8565b82806001019350505b508080600101915050610da4565b506040517fa723001c00000000000000000000000000000000000000000000000000000000815260040160405180910390fd5b919050565b610ee5611fbb565b80600b9080519060200190610efb9291906134b8565b5050565b610f0a83838361212d565b6002600d6000610f186119c4565b73ffffffffffffffffffffffffffffffffffffffff1673ffffffffffffffffffffffffffffffffffffffff1681526020019081526020016000205410610f93576040517f08c379a0000000000000000000000000000000000000000000000000000000008152600401610f8a90613fac565b60405180910390fd5b62015180600a60009054906101000a900463ffffffff16610fb49190614129565b63ffffffff16421015610ffc576040517f08c379a0000000000000000000000000000000000000000000000000000000008152600401610ff3906141a9565b60405180910390fd5b600a60009054906101000a900463ffffffff1663ffffffff16421115611057576040517f08c379a000000000000000000000000000000000000000000000000000000000815260040161104e90614215565b60405180910390fd5b611b5f61ffff166001611068610aa7565b6110729190614067565b11156110b3576040517f08c379a00000000000000000000000000000000000000000000000000000000081526004016110aa90614281565b60405180910390fd5b6110c56110be6119c4565b6001611a7e565b6001600d60006110d36119c4565b73ffffffffffffffffffffffffffffffffffffffff1673ffffffffffffffffffffffffffffffffffffffff168152602001908152602001600020600082825461111c9190614067565b92505081905550505050565b6000611133826122d8565b600001519050919050565b60008073ffffffffffffffffffffffffffffffffffffffff168273ffffffffffffffffffffffffffffffffffffffff1614156111a6576040517f8f4eb60400000000000000000000000000000000000000000000000000000000815260040160405180910390fd5b600560008373ffffffffffffffffffffffffffffffffffffffff1673ffffffffffffffffffffffffffffffffffffffff16815260200190815260200160002060000160009054906101000a900467ffffffffffffffff1667ffffffffffffffff169050919050565b611216611fbb565b6112206000612582565b565b600a60009054906101000a900463ffffffff1681565b60006060806000806000606061127860087f000000000000000000000000000000000000000000000000000000000000000061264690919063ffffffff16565b6112ac60097f000000000000000000000000000000000000000000000000000000000000000061264690919063ffffffff16565b46306000801b600067ffffffffffffffff8111156112cd576112cc613907565b5b6040519080825280602002602001820160405280156112fb5781602001602082028036833780820191505090505b507f0f00000000000000000000000000000000000000000000000000000000000000959493929190965096509650965096509650965090919293949596565b60008060009054906101000a900473ffffffffffffffffffffffffffffffffffffffff16905090565b61136b611fbb565b80600c90805190602001906113819291906134b8565b5050565b60606003805461139490613f2e565b80601f01602080910402602001604051908101604052809291908181526020018280546113c090613f2e565b801561140d5780601f106113e25761010080835404028352916020019161140d565b820191906000526020600020905b8154815290600101906020018083116113f057829003601f168201915b5050505050905090565b61141f6119c4565b73ffffffffffffffffffffffffffffffffffffffff168273ffffffffffffffffffffffffffffffffffffffff161415611484576040517fb06307db00000000000000000000000000000000000000000000000000000000815260040160405180910390fd5b80600760006114916119c4565b73ffffffffffffffffffffffffffffffffffffffff1673ffffffffffffffffffffffffffffffffffffffff16815260200190815260200160002060008473ffffffffffffffffffffffffffffffffffffffff1673ffffffffffffffffffffffffffffffffffffffff16815260200190815260200160002060006101000a81548160ff0219169083151502179055508173ffffffffffffffffffffffffffffffffffffffff1661153e6119c4565b73ffffffffffffffffffffffffffffffffffffffff167f17307eab39ab6107e8899845ad3d59bd9653f200f220920489ca2b5937696c31836040516115839190613652565b60405180910390a35050565b61159a848484611a9c565b6115a6848484846126f6565b6115dc576040517fd1a57ed600000000000000000000000000000000000000000000000000000000815260040160405180910390fd5b50505050565b60606115ed8261195b565b611623576040517fa14c4b5000000000000000000000000000000000000000000000000000000000815260040160405180910390fd5b600061162d612884565b905060008151141561164e5760405180602001604052806000815250611679565b8061165884612916565b6040516020016116699291906142dd565b6040516020818303038152906040525b915050919050565b611689611fbb565b611b5f61ffff1681611699610aa7565b6116a39190614067565b11156116e4576040517f08c379a00000000000000000000000000000000000000000000000000000000081526004016116db90614109565b60405180910390fd5b6116ee8282611a7e565b5050565b6060600c805461170190613f2e565b80601f016020809104026020016040519081016040528092919081815260200182805461172d90613f2e565b801561177a5780601f1061174f5761010080835404028352916020019161177a565b820191906000526020600020905b81548152906001019060200180831161175d57829003601f168201915b5050505050905090565b6000600760008473ffffffffffffffffffffffffffffffffffffffff1673ffffffffffffffffffffffffffffffffffffffff16815260200190815260200160002060008373ffffffffffffffffffffffffffffffffffffffff1673ffffffffffffffffffffffffffffffffffffffff16815260200190815260200160002060009054906101000a900460ff16905092915050565b611820611fbb565b600073ffffffffffffffffffffffffffffffffffffffff168173ffffffffffffffffffffffffffffffffffffffff161415611890576040517f08c379a000000000000000000000000000000000000000000000000000000000815260040161188790614373565b60405180910390fd5b61189981612582565b50565b60006020835110156118b8576118b1836129ee565b90506118e1565b826118c2836118e7565b60000190805190602001906118d89291906134b8565b5060ff60001b90505b92915050565b6000819050919050565b60007f01ffc9a7000000000000000000000000000000000000000000000000000000007bffffffffffffffffffffffffffffffffffffffffffffffffffffffff1916827bffffffffffffffffffffffffffffffffffffffffffffffffffffffff1916149050919050565b6000600160009054906101000a90046fffffffffffffffffffffffffffffffff166fffffffffffffffffffffffffffffffff16821080156119bd575060046000838152602001908152602001600020600001601c9054906101000a900460ff16155b9050919050565b600033905090565b826006600084815260200190815260200160002060006101000a81548173ffffffffffffffffffffffffffffffffffffffff021916908373ffffffffffffffffffffffffffffffffffffffff160217905550818373ffffffffffffffffffffffffffffffffffffffff168273ffffffffffffffffffffffffffffffffffffffff167f8c5be1e5ebec7d5bd14f71427d1e84f3dd0314c0f7b2291e5b200ac8c7c3b92560405160405180910390a4505050565b611a98828260405180602001604052806000815250612a56565b5050565b6000611aa7826122d8565b90506000816000015173ffffffffffffffffffffffffffffffffffffffff16611ace6119c4565b73ffffffffffffffffffffffffffffffffffffffff161480611b015750611b008260000151611afb6119c4565b611784565b5b80611b465750611b0f6119c4565b73ffffffffffffffffffffffffffffffffffffffff16611b2e8461076e565b73ffffffffffffffffffffffffffffffffffffffff16145b905080611b7f576040517f59c896be00000000000000000000000000000000000000000000000000000000815260040160405180910390fd5b8473ffffffffffffffffffffffffffffffffffffffff16826000015173ffffffffffffffffffffffffffffffffffffffff1614611be8576040517fa114810000000000000000000000000000000000000000000000000000000000815260040160405180910390fd5b600073ffffffffffffffffffffffffffffffffffffffff168473ffffffffffffffffffffffffffffffffffffffff161415611c4f576040517fea553b3400000000000000000000000000000000000000000000000000000000815260040160405180910390fd5b611c5c8585856001612a68565b611c6c60008484600001516119cc565b6001600560008773ffffffffffffffffffffffffffffffffffffffff1673ffffffffffffffffffffffffffffffffffffffff16815260200190815260200160002060000160008282829054906101000a900467ffffffffffffffff160392506101000a81548167ffffffffffffffff021916908367ffffffffffffffff1602179055506001600560008673ffffffffffffffffffffffffffffffffffffffff1673ffffffffffffffffffffffffffffffffffffffff16815260200190815260200160002060000160008282829054906101000a900467ffffffffffffffff160192506101000a81548167ffffffffffffffff021916908367ffffffffffffffff160217905550836004600085815260200190815260200160002060000160006101000a81548173ffffffffffffffffffffffffffffffffffffffff021916908373ffffffffffffffffffffffffffffffffffffffff160217905550426004600085815260200190815260200160002060000160146101000a81548167ffffffffffffffff021916908367ffffffffffffffff1602179055506000600184019050600073ffffffffffffffffffffffffffffffffffffffff166004600083815260200190815260200160002060000160009054906101000a900473ffffffffffffffffffffffffffffffffffffffff1673ffffffffffffffffffffffffffffffffffffffff161415611f4b57600160009054906101000a90046fffffffffffffffffffffffffffffffff166fffffffffffffffffffffffffffffffff16811015611f4a5782600001516004600083815260200190815260200160002060000160006101000a81548173ffffffffffffffffffffffffffffffffffffffff021916908373ffffffffffffffffffffffffffffffffffffffff16021790555082602001516004600083815260200190815260200160002060000160146101000a81548167ffffffffffffffff021916908367ffffffffffffffff1602179055505b5b50828473ffffffffffffffffffffffffffffffffffffffff168673ffffffffffffffffffffffffffffffffffffffff167fddf252ad1be2c89b69c2b068fc378daa952ba7f163c4a11628f55a4df523b3ef60405160405180910390a4611fb48585856001612a6e565b5050505050565b611fc36119c4565b73ffffffffffffffffffffffffffffffffffffffff16611fe161133a565b73ffffffffffffffffffffffffffffffffffffffff1614612037576040517f08c379a000000000000000000000000000000000000000000000000000000000815260040161202e906143df565b60405180910390fd5b565b8047101561207c576040517f08c379a00000000000000000000000000000000000000000000000000000000081526004016120739061444b565b60405180910390fd5b60008273ffffffffffffffffffffffffffffffffffffffff16826040516120a29061449c565b60006040518083038185875af1925050503d80600081146120df576040519150601f19603f3d011682016040523d82523d6000602084013e6120e4565b606091505b5050905080612128576040517f08c379a000000000000000000000000000000000000000000000000000000000815260040161211f90614523565b60405180910390fd5b505050565b6121356119c4565b73ffffffffffffffffffffffffffffffffffffffff1683600001602081019061215e919061387d565b73ffffffffffffffffffffffffffffffffffffffff16146121b4576040517f08c379a00000000000000000000000000000000000000000000000000000000081526004016121ab9061458f565b60405180910390fd5b600061220e7fdabea70844bf24d9249fbcd43ff305a229af24da603ae5c43f957f44dcbd0bed6121e26119c4565b6040516020016121f39291906145af565b60405160208183030381529060405280519060200120612a74565b905061225e8184848080601f016020809104026020016040519081016040528093929190818152602001838380828437600081840152601f19601f82011690508083019250505050505050612a8e565b73ffffffffffffffffffffffffffffffffffffffff1661227c61133a565b73ffffffffffffffffffffffffffffffffffffffff16146122d2576040517f08c379a00000000000000000000000000000000000000000000000000000000081526004016122c99061464a565b60405180910390fd5b50505050565b6122e061353e565b6000829050600160009054906101000a90046fffffffffffffffffffffffffffffffff166fffffffffffffffffffffffffffffffff1681101561254b576000600460008381526020019081526020016000206040518060600160405290816000820160009054906101000a900473ffffffffffffffffffffffffffffffffffffffff1673ffffffffffffffffffffffffffffffffffffffff1673ffffffffffffffffffffffffffffffffffffffff1681526020016000820160149054906101000a900467ffffffffffffffff1667ffffffffffffffff1667ffffffffffffffff16815260200160008201601c9054906101000a900460ff1615151515815250509050806040015161254957600073ffffffffffffffffffffffffffffffffffffffff16816000015173ffffffffffffffffffffffffffffffffffffffff161461242d57809250505061257d565b5b60011561254857818060019003925050600460008381526020019081526020016000206040518060600160405290816000820160009054906101000a900473ffffffffffffffffffffffffffffffffffffffff1673ffffffffffffffffffffffffffffffffffffffff1673ffffffffffffffffffffffffffffffffffffffff1681526020016000820160149054906101000a900467ffffffffffffffff1667ffffffffffffffff1667ffffffffffffffff16815260200160008201601c9054906101000a900460ff1615151515815250509050600073ffffffffffffffffffffffffffffffffffffffff16816000015173ffffffffffffffffffffffffffffffffffffffff161461254357809250505061257d565b61242e565b5b505b6040517fdf2d9b4200000000000000000000000000000000000000000000000000000000815260040160405180910390fd5b919050565b60008060009054906101000a900473ffffffffffffffffffffffffffffffffffffffff169050816000806101000a81548173ffffffffffffffffffffffffffffffffffffffff021916908373ffffffffffffffffffffffffffffffffffffffff1602179055508173ffffffffffffffffffffffffffffffffffffffff168173ffffffffffffffffffffffffffffffffffffffff167f8be0079c531659141344cd1fd0a4f28419497f9722a3daafe3b4186f6b6457e060405160405180910390a35050565b606060ff60001b83146126635761265c83612ab5565b90506126f0565b81805461266f90613f2e565b80601f016020809104026020016040519081016040528092919081815260200182805461269b90613f2e565b80156126e85780601f106126bd576101008083540402835291602001916126e8565b820191906000526020600020905b8154815290600101906020018083116126cb57829003601f168201915b505050505090505b92915050565b60006127178473ffffffffffffffffffffffffffffffffffffffff16612b29565b15612877578373ffffffffffffffffffffffffffffffffffffffff1663150b7a026127406119c4565b8786866040518563ffffffff1660e01b815260040161276294939291906146bf565b602060405180830381600087803b15801561277c57600080fd5b505af19250505080156127ad57506040513d601f19601f820116820180604052508101906127aa9190614720565b60015b612827573d80600081146127dd576040519150601f19603f3d011682016040523d82523d6000602084013e6127e2565b606091505b5060008151141561281f576040517fd1a57ed600000000000000000000000000000000000000000000000000000000815260040160405180910390fd5b805181602001fd5b63150b7a0260e01b7bffffffffffffffffffffffffffffffffffffffffffffffffffffffff1916817bffffffffffffffffffffffffffffffffffffffffffffffffffffffff19161491505061287c565b600190505b949350505050565b6060600b805461289390613f2e565b80601f01602080910402602001604051908101604052809291908181526020018280546128bf90613f2e565b801561290c5780601f106128e15761010080835404028352916020019161290c565b820191906000526020600020905b8154815290600101906020018083116128ef57829003601f168201915b5050505050905090565b60606000600161292584612b4c565b01905060008167ffffffffffffffff81111561294457612943613907565b5b6040519080825280601f01601f1916602001820160405280156129765781602001600182028036833780820191505090505b509050600082602001820190505b6001156129e3578080600190039150507f3031323334353637383961626364656600000000000000000000000000000000600a86061a8153600a85816129cd576129cc61474d565b5b04945060008514156129de576129e3565b612984565b819350505050919050565b600080829050601f81511115612a3b57826040517f305a27a9000000000000000000000000000000000000000000000000000000008152600401612a329190613706565b60405180910390fd5b805181612a47906147ae565b60001c1760001b915050919050565b612a638383836001612c9f565b505050565b50505050565b50505050565b6000612a87612a81613037565b836130ee565b9050919050565b6000806000612a9d858561312f565b91509150612aaa81613181565b819250505092915050565b60606000612ac2836132ef565b90506000602067ffffffffffffffff811115612ae157612ae0613907565b5b6040519080825280601f01601f191660200182016040528015612b135781602001600182028036833780820191505090505b5090508181528360208201528092505050919050565b6000808273ffffffffffffffffffffffffffffffffffffffff163b119050919050565b600080600090507a184f03e93ff9f4daa797ed6e38ed64bf6a1f0100000000000000008310612baa577a184f03e93ff9f4daa797ed6e38ed64bf6a1f0100000000000000008381612ba057612b9f61474d565b5b0492506040810190505b6d04ee2d6d415b85acef81000000008310612be7576d04ee2d6d415b85acef81000000008381612bdd57612bdc61474d565b5b0492506020810190505b662386f26fc100008310612c1657662386f26fc100008381612c0c57612c0b61474d565b5b0492506010810190505b6305f5e1008310612c3f576305f5e1008381612c3557612c3461474d565b5b0492506008810190505b6127108310612c64576127108381612c5a57612c5961474d565b5b0492506004810190505b60648310612c875760648381612c7d57612c7c61474d565b5b0492506002810190505b600a8310612c96576001810190505b80915050919050565b6000600160009054906101000a90046fffffffffffffffffffffffffffffffff166fffffffffffffffffffffffffffffffff169050600073ffffffffffffffffffffffffffffffffffffffff168573ffffffffffffffffffffffffffffffffffffffff161415612d3b576040517f2e07630000000000000000000000000000000000000000000000000000000000815260040160405180910390fd5b6000841415612d76576040517fb562e8dd00000000000000000000000000000000000000000000000000000000815260040160405180910390fd5b612d836000868387612a68565b83600560008773ffffffffffffffffffffffffffffffffffffffff1673ffffffffffffffffffffffffffffffffffffffff16815260200190815260200160002060000160008282829054906101000a900467ffffffffffffffff160192506101000a81548167ffffffffffffffff021916908367ffffffffffffffff16021790555083600560008773ffffffffffffffffffffffffffffffffffffffff1673ffffffffffffffffffffffffffffffffffffffff16815260200190815260200160002060000160088282829054906101000a900467ffffffffffffffff160192506101000a81548167ffffffffffffffff021916908367ffffffffffffffff160217905550846004600083815260200190815260200160002060000160006101000a81548173ffffffffffffffffffffffffffffffffffffffff021916908373ffffffffffffffffffffffffffffffffffffffff160217905550426004600083815260200190815260200160002060000160146101000a81548167ffffffffffffffff021916908367ffffffffffffffff160217905550600081905060005b85811015612fe857818773ffffffffffffffffffffffffffffffffffffffff16600073ffffffffffffffffffffffffffffffffffffffff167fddf252ad1be2c89b69c2b068fc378daa952ba7f163c4a11628f55a4df523b3ef60405160405180910390a4838015612f9c5750612f9a60008884886126f6565b155b15612fd3576040517fd1a57ed600000000000000000000000000000000000000000000000000000000815260040160405180910390fd5b81806001019250508080600101915050612f21565b5080600160006101000a8154816fffffffffffffffffffffffffffffffff02191690836fffffffffffffffffffffffffffffffff160217905550506130306000868387612a6e565b5050505050565b60007f000000000000000000000000000000000000000000000000000000000000000073ffffffffffffffffffffffffffffffffffffffff163073ffffffffffffffffffffffffffffffffffffffff161480156130b357507f000000000000000000000000000000000000000000000000000000000000000046145b156130e0577f000000000000000000000000000000000000000000000000000000000000000090506130eb565b6130e861333f565b90505b90565b60006040517f190100000000000000000000000000000000000000000000000000000000000081528360028201528260228201526042812091505092915050565b6000806041835114156131715760008060006020860151925060408601519150606086015160001a9050613165878285856133d5565b9450945050505061317a565b60006002915091505b9250929050565b6000600481111561319557613194614815565b5b8160048111156131a8576131a7614815565b5b14156131b3576132ec565b600160048111156131c7576131c6614815565b5b8160048111156131da576131d9614815565b5b141561321b576040517f08c379a000000000000000000000000000000000000000000000000000000000815260040161321290614890565b60405180910390fd5b6002600481111561322f5761322e614815565b5b81600481111561324257613241614815565b5b1415613283576040517f08c379a000000000000000000000000000000000000000000000000000000000815260040161327a906148fc565b60405180910390fd5b6003600481111561329757613296614815565b5b8160048111156132aa576132a9614815565b5b14156132eb576040517f08c379a00000000000000000000000000000000000000000000000000000000081526004016132e29061498e565b60405180910390fd5b5b50565b60008060ff8360001c169050601f811115613336576040517fb3512b0c00000000000000000000000000000000000000000000000000000000815260040160405180910390fd5b80915050919050565b60007f8b73c3c69bb8fe3d512ecc4cf759cc79239f7b179b0ffacaa9a75d522b39400f7f00000000000000000000000000000000000000000000000000000000000000007f000000000000000000000000000000000000000000000000000000000000000046306040516020016133ba9594939291906149ae565b60405160208183030381529060405280519060200120905090565b6000807f7fffffffffffffffffffffffffffffff5d576e7357a4501ddfe92f46681b20a08360001c11156134105760006003915091506134af565b6000600187878787604051600081526020016040526040516134359493929190614a1d565b6020604051602081039080840390855afa158015613457573d6000803e3d6000fd5b505050602060405103519050600073ffffffffffffffffffffffffffffffffffffffff168173ffffffffffffffffffffffffffffffffffffffff1614156134a6576000600192509250506134af565b80600092509250505b94509492505050565b8280546134c490613f2e565b90600052602060002090601f0160209004810192826134e6576000855561352d565b82601f106134ff57805160ff191683800117855561352d565b8280016001018555821561352d579182015b8281111561352c578251825591602001919060010190613511565b5b50905061353a9190613581565b5090565b6040518060600160405280600073ffffffffffffffffffffffffffffffffffffffff168152602001600067ffffffffffffffff1681526020016000151581525090565b5b8082111561359a576000816000905550600101613582565b5090565b6000604051905090565b600080fd5b600080fd5b60007fffffffff0000000000000000000000000000000000000000000000000000000082169050919050565b6135e7816135b2565b81146135f257600080fd5b50565b600081359050613604816135de565b92915050565b6000602082840312156136205761361f6135a8565b5b600061362e848285016135f5565b91505092915050565b60008115159050919050565b61364c81613637565b82525050565b60006020820190506136676000830184613643565b92915050565b600081519050919050565b600082825260208201905092915050565b60005b838110156136a757808201518184015260208101905061368c565b838111156136b6576000848401525b50505050565b6000601f19601f8301169050919050565b60006136d88261366d565b6136e28185613678565b93506136f2818560208601613689565b6136fb816136bc565b840191505092915050565b6000602082019050818103600083015261372081846136cd565b905092915050565b6000819050919050565b61373b81613728565b811461374657600080fd5b50565b60008135905061375881613732565b92915050565b600060208284031215613774576137736135a8565b5b600061378284828501613749565b91505092915050565b600073ffffffffffffffffffffffffffffffffffffffff82169050919050565b60006137b68261378b565b9050919050565b6137c6816137ab565b82525050565b60006020820190506137e160008301846137bd565b92915050565b6137f0816137ab565b81146137fb57600080fd5b50565b60008135905061380d816137e7565b92915050565b6000806040838503121561382a576138296135a8565b5b6000613838858286016137fe565b925050602061384985828601613749565b9150509250929050565b61385c81613728565b82525050565b60006020820190506138776000830184613853565b92915050565b600060208284031215613893576138926135a8565b5b60006138a1848285016137fe565b91505092915050565b6000806000606084860312156138c3576138c26135a8565b5b60006138d1868287016137fe565b93505060206138e2868287016137fe565b92505060406138f386828701613749565b9150509250925092565b600080fd5b600080fd5b7f4e487b7100000000000000000000000000000000000000000000000000000000600052604160045260246000fd5b61393f826136bc565b810181811067ffffffffffffffff8211171561395e5761395d613907565b5b80604052505050565b600061397161359e565b905061397d8282613936565b919050565b600067ffffffffffffffff82111561399d5761399c613907565b5b6139a6826136bc565b9050602081019050919050565b82818337600083830152505050565b60006139d56139d084613982565b613967565b9050828152602081018484840111156139f1576139f0613902565b5b6139fc8482856139b3565b509392505050565b600082601f830112613a1957613a186138fd565b5b8135613a298482602086016139c2565b91505092915050565b600060208284031215613a4857613a476135a8565b5b600082013567ffffffffffffffff811115613a6657613a656135ad565b5b613a7284828501613a04565b91505092915050565b600080fd5b600060208284031215613a9657613a95613a7b565b5b81905092915050565b600080fd5b600080fd5b60008083601f840112613abf57613abe6138fd565b5b8235905067ffffffffffffffff811115613adc57613adb613a9f565b5b602083019150836001820283011115613af857613af7613aa4565b5b9250929050565b600080600060408486031215613b1857613b176135a8565b5b6000613b2686828701613a80565b935050602084013567ffffffffffffffff811115613b4757613b466135ad565b5b613b5386828701613aa9565b92509250509250925092565b600063ffffffff82169050919050565b613b7881613b5f565b82525050565b6000602082019050613b936000830184613b6f565b92915050565b60007fff0000000000000000000000000000000000000000000000000000000000000082169050919050565b613bce81613b99565b82525050565b6000819050919050565b613be781613bd4565b82525050565b600081519050919050565b600082825260208201905092915050565b6000819050602082019050919050565b613c2281613728565b82525050565b6000613c348383613c19565b60208301905092915050565b6000602082019050919050565b6000613c5882613bed565b613c628185613bf8565b9350613c6d83613c09565b8060005b83811015613c9e578151613c858882613c28565b9750613c9083613c40565b925050600181019050613c71565b5085935050505092915050565b600060e082019050613cc0600083018a613bc5565b8181036020830152613cd281896136cd565b90508181036040830152613ce681886136cd565b9050613cf56060830187613853565b613d0260808301866137bd565b613d0f60a0830185613bde565b81810360c0830152613d218184613c4d565b905098975050505050505050565b613d3881613637565b8114613d4357600080fd5b50565b600081359050613d5581613d2f565b92915050565b60008060408385031215613d7257613d716135a8565b5b6000613d80858286016137fe565b9250506020613d9185828601613d46565b9150509250929050565b600067ffffffffffffffff821115613db657613db5613907565b5b613dbf826136bc565b9050602081019050919050565b6000613ddf613dda84613d9b565b613967565b905082815260208101848484011115613dfb57613dfa613902565b5b613e068482856139b3565b509392505050565b600082601f830112613e2357613e226138fd565b5b8135613e33848260208601613dcc565b91505092915050565b60008060008060808587031215613e5657613e556135a8565b5b6000613e64878288016137fe565b9450506020613e75878288016137fe565b9350506040613e8687828801613749565b925050606085013567ffffffffffffffff811115613ea757613ea66135ad565b5b613eb387828801613e0e565b91505092959194509250565b60008060408385031215613ed657613ed56135a8565b5b6000613ee4858286016137fe565b9250506020613ef5858286016137fe565b9150509250929050565b7f4e487b7100000000000000000000000000000000000000000000000000000000600052602260045260246000fd5b60006002820490506001821680613f4657607f821691505b60208210811415613f5a57613f59613eff565b5b50919050565b7f4d696e7465640000000000000000000000000000000000000000000000000000600082015250565b6000613f96600683613678565b9150613fa182613f60565b602082019050919050565b60006020820190508181036000830152613fc581613f89565b9050919050565b7f53616c65206e6f74207374617274656400000000000000000000000000000000600082015250565b6000614002601083613678565b915061400d82613fcc565b602082019050919050565b6000602082019050818103600083015261403181613ff5565b9050919050565b7f4e487b7100000000000000000000000000000000000000000000000000000000600052601160045260246000fd5b600061407282613728565b915061407d83613728565b9250827fffffffffffffffffffffffffffffffffffffffffffffffffffffffffffffffff038211156140b2576140b1614038565b5b828201905092915050565b7f45786365656420746f74616c20737570706c7900000000000000000000000000600082015250565b60006140f3601383613678565b91506140fe826140bd565b602082019050919050565b60006020820190508181036000830152614122816140e6565b9050919050565b600061413482613b5f565b915061413f83613b5f565b92508282101561415257614151614038565b5b828203905092915050565b7f57686974654c6973742053616c65206e6f742073746172746564000000000000600082015250565b6000614193601a83613678565b915061419e8261415d565b602082019050919050565b600060208201905081810360008301526141c281614186565b9050919050565b7f57686974654c6973742053616c6520656e646564000000000000000000000000600082015250565b60006141ff601483613678565b915061420a826141c9565b602082019050919050565b6000602082019050818103600083015261422e816141f2565b9050919050565b7f457863656564207374616765206d617820737570706c79000000000000000000600082015250565b600061426b601783613678565b915061427682614235565b602082019050919050565b6000602082019050818103600083015261429a8161425e565b9050919050565b600081905092915050565b60006142b78261366d565b6142c181856142a1565b93506142d1818560208601613689565b80840191505092915050565b60006142e982856142ac565b91506142f582846142ac565b91508190509392505050565b7f4f776e61626c653a206e6577206f776e657220697320746865207a65726f206160008201527f6464726573730000000000000000000000000000000000000000000000000000602082015250565b600061435d602683613678565b915061436882614301565b604082019050919050565b6000602082019050818103600083015261438c81614350565b9050919050565b7f4f776e61626c653a2063616c6c6572206973206e6f7420746865206f776e6572600082015250565b60006143c9602083613678565b91506143d482614393565b602082019050919050565b600060208201905081810360008301526143f8816143bc565b9050919050565b7f416464726573733a20696e73756666696369656e742062616c616e6365000000600082015250565b6000614435601d83613678565b9150614440826143ff565b602082019050919050565b6000602082019050818103600083015261446481614428565b9050919050565b600081905092915050565b50565b600061448660008361446b565b915061449182614476565b600082019050919050565b60006144a782614479565b9150819050919050565b7f416464726573733a20756e61626c6520746f2073656e642076616c75652c207260008201527f6563697069656e74206d61792068617665207265766572746564000000000000602082015250565b600061450d603a83613678565b9150614518826144b1565b604082019050919050565b6000602082019050818103600083015261453c81614500565b9050919050565b7f566f7563686572206e6f7420666f72207468652072656465656d657200000000600082015250565b6000614579601c83613678565b915061458482614543565b602082019050919050565b600060208201905081810360008301526145a88161456c565b9050919050565b60006040820190506145c46000830185613bde565b6145d160208301846137bd565b9392505050565b7f5369676e617475726520696e76616c6964206f7220756e617574686f72697a6560008201527f6400000000000000000000000000000000000000000000000000000000000000602082015250565b6000614634602183613678565b915061463f826145d8565b604082019050919050565b6000602082019050818103600083015261466381614627565b9050919050565b600081519050919050565b600082825260208201905092915050565b60006146918261466a565b61469b8185614675565b93506146ab818560208601613689565b6146b4816136bc565b840191505092915050565b60006080820190506146d460008301876137bd565b6146e160208301866137bd565b6146ee6040830185613853565b81810360608301526147008184614686565b905095945050505050565b60008151905061471a816135de565b92915050565b600060208284031215614736576147356135a8565b5b60006147448482850161470b565b91505092915050565b7f4e487b7100000000000000000000000000000000000000000000000000000000600052601260045260246000fd5b6000819050602082019050919050565b60006147988251613bd4565b80915050919050565b600082821b905092915050565b60006147b98261466a565b826147c38461477c565b90506147ce8161478c565b9250602082101561480e576148097fffffffffffffffffffffffffffffffffffffffffffffffffffffffffffffffff836020036008026147a1565b831692505b5050919050565b7f4e487b7100000000000000000000000000000000000000000000000000000000600052602160045260246000fd5b7f45434453413a20696e76616c6964207369676e61747572650000000000000000600082015250565b600061487a601883613678565b915061488582614844565b602082019050919050565b600060208201905081810360008301526148a98161486d565b9050919050565b7f45434453413a20696e76616c6964207369676e6174757265206c656e67746800600082015250565b60006148e6601f83613678565b91506148f1826148b0565b602082019050919050565b60006020820190508181036000830152614915816148d9565b9050919050565b7f45434453413a20696e76616c6964207369676e6174757265202773272076616c60008201527f7565000000000000000000000000000000000000000000000000000000000000602082015250565b6000614978602283613678565b91506149838261491c565b604082019050919050565b600060208201905081810360008301526149a78161496b565b9050919050565b600060a0820190506149c36000830188613bde565b6149d06020830187613bde565b6149dd6040830186613bde565b6149ea6060830185613853565b6149f760808301846137bd565b9695505050505050565b600060ff82169050919050565b614a1781614a01565b82525050565b6000608082019050614a326000830187613bde565b614a3f6020830186614a0e565b614a4c6040830185613bde565b614a596060830184613bde565b9594505050505056fea2646970667358221220ba95f95f5c18b65e188aff887fd8af77d47ca30d3a8ee6a705c03c273dd46e8a64736f6c63430008080033",
  "linkReferences": {},
  "deployedLinkReferences": {}
}